{
  "_format": "hh-sol-artifact-1",
  "contractName": "QdayCore",
  "sourceName": "contracts/QdayCore.sol",
  "abi": [
    {
      "inputs": [
        {
          "internalType": "contract WAbel",
          "name": "wAbel_",
          "type": "address"
        },
        {
          "internalType": "contract VeQday",
          "name": "veQday_",
          "type": "address"
        },
        {
          "internalType": "uint256",
          "name": "startTime_",
          "type": "uint256"
        }
      ],
      "stateMutability": "payable",
      "type": "constructor"
    },
    {
      "inputs": [],
      "name": "AccessControlBadConfirmation",
      "type": "error"
    },
    {
      "inputs": [
        {
          "internalType": "address",
          "name": "account",
          "type": "address"
        },
        {
          "internalType": "bytes32",
          "name": "neededRole",
          "type": "bytes32"
        }
      ],
      "name": "AccessControlUnauthorizedAccount",
      "type": "error"
    },
    {
      "inputs": [
        {
          "internalType": "address",
          "name": "account",
          "type": "address"
        },
        {
          "internalType": "uint256",
          "name": "balance",
          "type": "uint256"
        },
        {
          "internalType": "uint256",
          "name": "needed",
          "type": "uint256"
        }
      ],
      "name": "InsufficientBalance",
      "type": "error"
    },
    {
      "inputs": [
        {
          "internalType": "uint256",
          "name": "start",
          "type": "uint256"
        },
        {
          "internalType": "uint256",
          "name": "stakeDay",
          "type": "uint256"
        },
        {
          "internalType": "uint256",
          "name": "current",
          "type": "uint256"
        }
      ],
      "name": "InvalidStakeTime",
      "type": "error"
    },
    {
      "inputs": [
        {
          "internalType": "uint256",
          "name": "start",
          "type": "uint256"
        },
        {
          "internalType": "uint256",
          "name": "stakeDay",
          "type": "uint256"
        },
        {
          "internalType": "uint256",
          "name": "current",
          "type": "uint256"
        }
      ],
      "name": "InvalidUnstakeTime",
      "type": "error"
    },
    {
      "inputs": [
        {
          "internalType": "uint256",
          "name": "start",
          "type": "uint256"
        },
        {
          "internalType": "uint256",
          "name": "stakeDay",
          "type": "uint256"
        },
        {
          "internalType": "uint256",
          "name": "current",
          "type": "uint256"
        }
      ],
      "name": "InvalidWithdrawTime",
      "type": "error"
    },
    {
      "anonymous": false,
      "inputs": [
        {
          "indexed": true,
          "internalType": "address",
          "name": "to",
          "type": "address"
        },
        {
          "indexed": false,
          "internalType": "uint256",
          "name": "amount",
          "type": "uint256"
        }
      ],
      "name": "Airdrop",
      "type": "event"
    },
    {
      "anonymous": false,
      "inputs": [
        {
          "indexed": true,
          "internalType": "address",
          "name": "owner",
          "type": "address"
        },
        {
          "indexed": false,
          "internalType": "uint256",
          "name": "amount",
          "type": "uint256"
        }
      ],
      "name": "BurnWAbel",
      "type": "event"
    },
    {
      "anonymous": false,
      "inputs": [
        {
          "indexed": true,
          "internalType": "address",
          "name": "to",
          "type": "address"
        },
        {
          "indexed": false,
          "internalType": "uint256",
          "name": "amount",
          "type": "uint256"
        },
        {
          "indexed": false,
          "internalType": "uint256",
          "name": "lockDay",
          "type": "uint256"
        }
      ],
      "name": "MintWAbel",
      "type": "event"
    },
    {
      "anonymous": false,
      "inputs": [
        {
          "indexed": true,
          "internalType": "bytes32",
          "name": "role",
          "type": "bytes32"
        },
        {
          "indexed": true,
          "internalType": "bytes32",
          "name": "previousAdminRole",
          "type": "bytes32"
        },
        {
          "indexed": true,
          "internalType": "bytes32",
          "name": "newAdminRole",
          "type": "bytes32"
        }
      ],
      "name": "RoleAdminChanged",
      "type": "event"
    },
    {
      "anonymous": false,
      "inputs": [
        {
          "indexed": true,
          "internalType": "bytes32",
          "name": "role",
          "type": "bytes32"
        },
        {
          "indexed": true,
          "internalType": "address",
          "name": "account",
          "type": "address"
        },
        {
          "indexed": true,
          "internalType": "address",
          "name": "sender",
          "type": "address"
        }
      ],
      "name": "RoleGranted",
      "type": "event"
    },
    {
      "anonymous": false,
      "inputs": [
        {
          "indexed": true,
          "internalType": "bytes32",
          "name": "role",
          "type": "bytes32"
        },
        {
          "indexed": true,
          "internalType": "address",
          "name": "account",
          "type": "address"
        },
        {
          "indexed": true,
          "internalType": "address",
          "name": "sender",
          "type": "address"
        }
      ],
      "name": "RoleRevoked",
      "type": "event"
    },
    {
      "anonymous": false,
      "inputs": [
        {
          "indexed": false,
          "internalType": "address",
          "name": "account",
          "type": "address"
        },
        {
          "indexed": false,
          "internalType": "uint256",
          "name": "amount",
          "type": "uint256"
        },
        {
          "indexed": false,
          "internalType": "uint256",
          "name": "day",
          "type": "uint256"
        }
      ],
      "name": "Stake",
      "type": "event"
    },
    {
      "anonymous": false,
      "inputs": [
        {
          "indexed": false,
          "internalType": "address",
          "name": "account",
          "type": "address"
        },
        {
          "indexed": false,
          "internalType": "uint256",
          "name": "amount",
          "type": "uint256"
        },
        {
          "indexed": false,
          "internalType": "uint256",
          "name": "day",
          "type": "uint256"
        }
      ],
      "name": "Unstake",
      "type": "event"
    },
    {
      "anonymous": false,
      "inputs": [
        {
          "indexed": false,
          "internalType": "address",
          "name": "account",
          "type": "address"
        },
        {
          "indexed": false,
          "internalType": "uint256",
          "name": "amount",
          "type": "uint256"
        },
        {
          "indexed": false,
          "internalType": "uint256",
          "name": "day",
          "type": "uint256"
        }
      ],
      "name": "WithdrawReward",
      "type": "event"
    },
    {
      "inputs": [],
      "name": "ADMIN_ROLE",
      "outputs": [
        {
          "internalType": "bytes32",
          "name": "",
          "type": "bytes32"
        }
      ],
      "stateMutability": "view",
      "type": "function"
    },
    {
      "inputs": [],
      "name": "BURNER_ROLE",
      "outputs": [
        {
          "internalType": "bytes32",
          "name": "",
          "type": "bytes32"
        }
      ],
      "stateMutability": "view",
      "type": "function"
    },
    {
      "inputs": [],
      "name": "DAY_SECONDS",
      "outputs": [
        {
          "internalType": "uint256",
          "name": "",
          "type": "uint256"
        }
      ],
      "stateMutability": "view",
      "type": "function"
    },
    {
      "inputs": [],
      "name": "DEFAULT_ADMIN_ROLE",
      "outputs": [
        {
          "internalType": "bytes32",
          "name": "",
          "type": "bytes32"
        }
      ],
      "stateMutability": "view",
      "type": "function"
    },
    {
      "inputs": [],
      "name": "GAS_FEES",
      "outputs": [
        {
          "internalType": "uint256",
          "name": "",
          "type": "uint256"
        }
      ],
      "stateMutability": "view",
      "type": "function"
    },
    {
      "inputs": [],
      "name": "MINTER_ROLE",
      "outputs": [
        {
          "internalType": "bytes32",
          "name": "",
          "type": "bytes32"
        }
      ],
      "stateMutability": "view",
      "type": "function"
    },
    {
      "inputs": [],
      "name": "TOTAL_QDAY",
      "outputs": [
        {
          "internalType": "uint256",
          "name": "",
          "type": "uint256"
        }
      ],
      "stateMutability": "view",
      "type": "function"
    },
    {
      "inputs": [],
      "name": "airdropDay",
      "outputs": [
        {
          "internalType": "uint256",
          "name": "",
          "type": "uint256"
        }
      ],
      "stateMutability": "view",
      "type": "function"
    },
    {
      "inputs": [
        {
          "internalType": "uint256",
          "name": "amount",
          "type": "uint256"
        }
      ],
      "name": "burnWAbel",
      "outputs": [],
      "stateMutability": "nonpayable",
      "type": "function"
    },
    {
      "inputs": [
        {
          "internalType": "address",
          "name": "account",
          "type": "address"
        }
      ],
      "name": "claimedReward",
      "outputs": [
        {
          "internalType": "uint256",
          "name": "",
          "type": "uint256"
        }
      ],
      "stateMutability": "view",
      "type": "function"
    },
    {
      "inputs": [
        {
          "internalType": "bytes32",
          "name": "role",
          "type": "bytes32"
        }
      ],
      "name": "getRoleAdmin",
      "outputs": [
        {
          "internalType": "bytes32",
          "name": "",
          "type": "bytes32"
        }
      ],
      "stateMutability": "view",
      "type": "function"
    },
    {
      "inputs": [
        {
          "internalType": "bytes32",
          "name": "role",
          "type": "bytes32"
        },
        {
          "internalType": "address",
          "name": "account",
          "type": "address"
        }
      ],
      "name": "grantRole",
      "outputs": [],
      "stateMutability": "nonpayable",
      "type": "function"
    },
    {
      "inputs": [
        {
          "internalType": "bytes32",
          "name": "role",
          "type": "bytes32"
        },
        {
          "internalType": "address",
          "name": "account",
          "type": "address"
        }
      ],
      "name": "hasRole",
      "outputs": [
        {
          "internalType": "bool",
          "name": "",
          "type": "bool"
        }
      ],
      "stateMutability": "view",
      "type": "function"
    },
    {
      "inputs": [],
      "name": "lockDay",
      "outputs": [
        {
          "internalType": "uint256",
          "name": "",
          "type": "uint256"
        }
      ],
      "stateMutability": "view",
      "type": "function"
    },
    {
      "inputs": [
        {
          "internalType": "address",
          "name": "to_",
          "type": "address"
        },
        {
          "internalType": "uint256",
          "name": "amount_",
          "type": "uint256"
        },
        {
          "internalType": "uint256",
          "name": "lockDay_",
          "type": "uint256"
        }
      ],
      "name": "mintWAbel",
      "outputs": [],
      "stateMutability": "nonpayable",
      "type": "function"
    },
    {
      "inputs": [],
      "name": "overQday",
      "outputs": [
        {
          "internalType": "uint256",
          "name": "",
          "type": "uint256"
        }
      ],
      "stateMutability": "view",
      "type": "function"
    },
    {
      "inputs": [
        {
          "internalType": "bytes32",
          "name": "role",
          "type": "bytes32"
        },
        {
          "internalType": "address",
          "name": "callerConfirmation",
          "type": "address"
        }
      ],
      "name": "renounceRole",
      "outputs": [],
      "stateMutability": "nonpayable",
      "type": "function"
    },
    {
      "inputs": [
        {
          "internalType": "bytes32",
          "name": "role",
          "type": "bytes32"
        },
        {
          "internalType": "address",
          "name": "account",
          "type": "address"
        }
      ],
      "name": "revokeRole",
      "outputs": [],
      "stateMutability": "nonpayable",
      "type": "function"
    },
    {
      "inputs": [
        {
          "internalType": "address",
          "name": "account",
          "type": "address"
        },
        {
          "internalType": "uint256",
          "name": "day",
          "type": "uint256"
        }
      ],
      "name": "reward",
      "outputs": [
        {
          "internalType": "uint256",
          "name": "",
          "type": "uint256"
        }
      ],
      "stateMutability": "view",
      "type": "function"
    },
    {
      "inputs": [
        {
          "internalType": "address",
          "name": "account",
          "type": "address"
        }
      ],
      "name": "reward",
      "outputs": [
        {
          "internalType": "uint256",
          "name": "",
          "type": "uint256"
        }
      ],
      "stateMutability": "view",
      "type": "function"
    },
    {
      "inputs": [
        {
          "internalType": "uint256",
          "name": "amount",
          "type": "uint256"
        }
      ],
      "name": "stake",
      "outputs": [],
      "stateMutability": "nonpayable",
      "type": "function"
    },
    {
      "inputs": [],
      "name": "stakeDay",
      "outputs": [
        {
          "internalType": "uint256",
          "name": "",
          "type": "uint256"
        }
      ],
      "stateMutability": "view",
      "type": "function"
    },
    {
      "inputs": [],
      "name": "stakeWithQday",
      "outputs": [],
      "stateMutability": "payable",
      "type": "function"
    },
    {
      "inputs": [],
      "name": "startTime",
      "outputs": [
        {
          "internalType": "uint256",
          "name": "",
          "type": "uint256"
        }
      ],
      "stateMutability": "view",
      "type": "function"
    },
    {
      "inputs": [
        {
          "internalType": "bytes4",
          "name": "interfaceId",
          "type": "bytes4"
        }
      ],
      "name": "supportsInterface",
      "outputs": [
        {
          "internalType": "bool",
          "name": "",
          "type": "bool"
        }
      ],
      "stateMutability": "view",
      "type": "function"
    },
    {
      "inputs": [],
      "name": "totalReward",
      "outputs": [
        {
          "internalType": "uint256",
          "name": "",
          "type": "uint256"
        }
      ],
      "stateMutability": "view",
      "type": "function"
    },
    {
      "inputs": [
        {
          "internalType": "uint256",
          "name": "day",
          "type": "uint256"
        }
      ],
      "name": "totalStake",
      "outputs": [
        {
          "internalType": "uint256",
          "name": "",
          "type": "uint256"
        }
      ],
      "stateMutability": "view",
      "type": "function"
    },
    {
      "inputs": [],
      "name": "totalStake",
      "outputs": [
        {
          "internalType": "uint256",
          "name": "",
          "type": "uint256"
        }
      ],
      "stateMutability": "view",
      "type": "function"
    },
    {
      "inputs": [
        {
          "internalType": "address",
          "name": "account",
          "type": "address"
        }
      ],
      "name": "unlockedReward",
      "outputs": [
        {
          "internalType": "uint256",
          "name": "",
          "type": "uint256"
        }
      ],
      "stateMutability": "view",
      "type": "function"
    },
    {
      "inputs": [
        {
          "internalType": "uint256",
          "name": "amount",
          "type": "uint256"
        }
      ],
      "name": "unstake",
      "outputs": [],
      "stateMutability": "nonpayable",
      "type": "function"
    },
    {
      "inputs": [
        {
          "internalType": "uint256",
          "name": "amount",
          "type": "uint256"
        }
      ],
      "name": "unstakeWithQday",
      "outputs": [],
      "stateMutability": "nonpayable",
      "type": "function"
    },
    {
      "inputs": [
        {
          "internalType": "uint256",
          "name": "startTime_",
          "type": "uint256"
        },
        {
          "internalType": "uint256",
          "name": "airdropDay_",
          "type": "uint256"
        },
        {
          "internalType": "uint256",
          "name": "stakeDay_",
          "type": "uint256"
        },
        {
          "internalType": "uint256",
          "name": "lockDay_",
          "type": "uint256"
        }
      ],
      "name": "updateParams",
      "outputs": [],
      "stateMutability": "nonpayable",
      "type": "function"
    },
    {
      "inputs": [
        {
          "internalType": "address",
          "name": "account",
          "type": "address"
        },
        {
          "internalType": "uint256",
          "name": "day",
          "type": "uint256"
        }
      ],
      "name": "userStake",
      "outputs": [
        {
          "internalType": "uint256",
          "name": "",
          "type": "uint256"
        }
      ],
      "stateMutability": "view",
      "type": "function"
    },
    {
      "inputs": [
        {
          "internalType": "address",
          "name": "account",
          "type": "address"
        }
      ],
      "name": "userStake",
      "outputs": [
        {
          "internalType": "uint256",
          "name": "",
          "type": "uint256"
        }
      ],
      "stateMutability": "view",
      "type": "function"
    },
    {
      "inputs": [],
      "name": "veQday",
      "outputs": [
        {
          "internalType": "contract VeQday",
          "name": "",
          "type": "address"
        }
      ],
      "stateMutability": "view",
      "type": "function"
    },
    {
      "inputs": [],
      "name": "wAbel",
      "outputs": [
        {
          "internalType": "contract WAbel",
          "name": "",
          "type": "address"
        }
      ],
      "stateMutability": "view",
      "type": "function"
    },
    {
      "inputs": [
        {
          "internalType": "address payable",
          "name": "to",
          "type": "address"
        },
        {
          "internalType": "uint256",
          "name": "value",
          "type": "uint256"
        }
      ],
      "name": "withdrawQday",
      "outputs": [],
      "stateMutability": "nonpayable",
      "type": "function"
    },
    {
      "inputs": [
        {
          "internalType": "address payable",
          "name": "account",
          "type": "address"
        }
      ],
      "name": "withdrawReward",
      "outputs": [],
      "stateMutability": "nonpayable",
      "type": "function"
    }
  ],
  "bytecode": "0x60806040526040516200240c3803806200240c833981016040819052620000269162000286565b62000041600080516020620023ec8339815191523362000173565b506200006c600080516020620023cc833981519152600080516020620023ec83398151915262000222565b620000a77f3c11d16cbaffd01df69ce1c404f6340ee057498f5f00246190ea54220576a848600080516020620023ec83398151915262000222565b620000c2600080516020620023cc8339815191523362000173565b50620000ef7f3c11d16cbaffd01df69ce1c404f6340ee057498f5f00246190ea54220576a8483362000173565b50600180546001600160a01b039485166001600160a01b03199182161782556002805494909516931692909217909255600391909155683635c9adc5dea00000600455600760058190556107d060065581905560008052600a6020527f13da86008ba1c6922daee3e07db95305ef49ebced9f5467a0b8613fcc6b343e355620002ce565b6000828152602081815260408083206001600160a01b038516845290915281205460ff1662000218576000838152602081815260408083206001600160a01b03861684529091529020805460ff19166001179055620001cf3390565b6001600160a01b0316826001600160a01b0316847f2f8788117e7eff1d82e926ec794901d17c78024a50270940304540a733656f0d60405160405180910390a45060016200021c565b5060005b92915050565b600082815260208190526040808220600101805490849055905190918391839186917fbd79b86ffe0ab8e8776151514217cd7cacd52c909f66475c3af44e129f0b00ff9190a4505050565b6001600160a01b03811681146200028357600080fd5b50565b6000806000606084860312156200029c57600080fd5b8351620002a9816200026d565b6020850151909350620002bc816200026d565b80925050604084015190509250925092565b6120ee80620002de6000396000f3fe6080604052600436106102855760003560e01c8063750142e611610153578063ab91bc8f116100cb578063c39855841161007f578063d547741f11610064578063d547741f1461077f578063df3b61301461079f578063f6fcca26146107b557600080fd5b8063c398558414610735578063d53913931461074b57600080fd5b8063b86e321c116100b0578063b86e321c146106df578063b8b2fcf5146106ff578063b9ffbe671461071557600080fd5b8063ab91bc8f146106b7578063b0557bf1146106bf57600080fd5b806391d1485411610122578063a17d02b211610107578063a17d02b214610662578063a217fddf14610682578063a694fc3a1461069757600080fd5b806391d14854146105f15780639ff18bdd1461064257600080fd5b8063750142e61461057d57806375b238fc1461059257806378e97925146105c65780638b0e9f3f146105dc57600080fd5b806337b3b15c1161020157806358e6d53c116101b55780636353586b1161019a5780636353586b1461051d57806368e5585d1461053d5780636ed7d8bb1461055d57600080fd5b806358e6d53c146104e75780635ab633cd146104fd57600080fd5b8063465c8685116101e6578063465c86851461048457806349d4a52a146104a457806351ac2845146104d157600080fd5b806337b3b15c146104485780633937ea4f1461046457600080fd5b8063248a9ca3116102585780632e17de781161023d5780632e17de78146103e65780632f2ff15d1461040857806336568abe1461042857600080fd5b8063248a9ca314610382578063282c51f3146103b257600080fd5b806301ffc9a71461028a57806318a0cf45146102bf5780631e6f3d8a1461031157806321670f2214610362575b600080fd5b34801561029657600080fd5b506102aa6102a5366004611df6565b6107d2565b60405190151581526020015b60405180910390f35b3480156102cb57600080fd5b506001546102ec9073ffffffffffffffffffffffffffffffffffffffff1681565b60405173ffffffffffffffffffffffffffffffffffffffff90911681526020016102b6565b34801561031d57600080fd5b5061035461032c366004611e5a565b73ffffffffffffffffffffffffffffffffffffffff1660009081526009602052604090205490565b6040519081526020016102b6565b34801561036e57600080fd5b5061035461037d366004611e77565b61086b565b34801561038e57600080fd5b5061035461039d366004611ea3565b60009081526020819052604090206001015490565b3480156103be57600080fd5b506103547f3c11d16cbaffd01df69ce1c404f6340ee057498f5f00246190ea54220576a84881565b3480156103f257600080fd5b50610406610401366004611ea3565b61087e565b005b34801561041457600080fd5b50610406610423366004611ebc565b610927565b34801561043457600080fd5b50610406610443366004611ebc565b610952565b34801561045457600080fd5b5061035467016345785d8a000081565b34801561047057600080fd5b5061035461047f366004611e77565b6109b0565b34801561049057600080fd5b5061035461049f366004611e5a565b6109ec565b3480156104b057600080fd5b506002546102ec9073ffffffffffffffffffffffffffffffffffffffff1681565b3480156104dd57600080fd5b5061035460075481565b3480156104f357600080fd5b50610354610e1081565b34801561050957600080fd5b50610354610518366004611ea3565b610a00565b34801561052957600080fd5b50610354610538366004611e5a565b610a27565b34801561054957600080fd5b50610354610558366004611e5a565b610a4d565b34801561056957600080fd5b50610406610578366004611e77565b610aa2565b34801561058957600080fd5b50610354610b0f565b34801561059e57600080fd5b506103547fa49807205ce4d355092ef5a8a18f56e8913cf4a201fbe287825b095693c2177581565b3480156105d257600080fd5b5061035460035481565b3480156105e857600080fd5b50610354610b2d565b3480156105fd57600080fd5b506102aa61060c366004611ebc565b60009182526020828152604080842073ffffffffffffffffffffffffffffffffffffffff93909316845291905290205460ff1690565b34801561064e57600080fd5b5061040661065d366004611ea3565b610b76565b34801561066e57600080fd5b5061040661067d366004611ea3565b610c38565b34801561068e57600080fd5b50610354600081565b3480156106a357600080fd5b506104066106b2366004611ea3565b610ccf565b610406610d91565b3480156106cb57600080fd5b506104066106da366004611eec565b610e38565b3480156106eb57600080fd5b506104066106fa366004611e5a565b610e95565b34801561070b57600080fd5b5061035460065481565b34801561072157600080fd5b50610406610730366004611f1e565b610fcc565b34801561074157600080fd5b5061035460055481565b34801561075757600080fd5b506103547f9f2df0fed2c77648de5860a4cc508cd0818c85b8b8a1ab4ceeef8d981c8956a681565b34801561078b57600080fd5b5061040661079a366004611ebc565b611217565b3480156107ab57600080fd5b5061035460045481565b3480156107c157600080fd5b50610354683635c9adc5dea0000081565b60007fffffffff0000000000000000000000000000000000000000000000000000000082167f7965db0b00000000000000000000000000000000000000000000000000000000148061086557507f01ffc9a7000000000000000000000000000000000000000000000000000000007fffffffff000000000000000000000000000000000000000000000000000000008316145b92915050565b6000610877838361123c565b9392505050565b6108883382611424565b6002546040517fa9059cbb0000000000000000000000000000000000000000000000000000000081523360048201526024810183905273ffffffffffffffffffffffffffffffffffffffff9091169063a9059cbb906044016020604051808303816000875af11580156108ff573d6000803e3d6000fd5b505050506040513d601f19601f820116820180604052508101906109239190611f53565b5050565b60008281526020819052604090206001015461094281611665565b61094c8383611672565b50505050565b73ffffffffffffffffffffffffffffffffffffffff811633146109a1576040517f6697b23200000000000000000000000000000000000000000000000000000000815260040160405180910390fd5b6109ab828261176e565b505050565b60006109bc8383611829565b73ffffffffffffffffffffffffffffffffffffffff93909316600090815260019093016020525050604090205490565b6000610865826109fb426118d0565b6118ee565b6000600654821115610a125760065491505b6001610a1d83611920565b6108659190611fa4565b6000600354421015610a3b57506000919050565b61086582610a48426118d0565b61123c565b6000600354421015610a6157506000919050565b610a7382610a6e426118d0565b611829565b73ffffffffffffffffffffffffffffffffffffffff909216600090815260019290920160205250604090205490565b7fa49807205ce4d355092ef5a8a18f56e8913cf4a201fbe287825b095693c21775610acc81611665565b60405173ffffffffffffffffffffffffffffffffffffffff84169083156108fc029084906000818181858888f1935050505015801561094c573d6000803e3d6000fd5b6000600454683635c9adc5dea00000610b289190611fa4565b905090565b6000600354421015610b3f5750600090565b6000610b4a426118d0565b9050600654811115610b5b57506006545b6001610b6682611920565b610b709190611fa4565b91505090565b6001546040517f9dc29fac0000000000000000000000000000000000000000000000000000000081523360048201526024810183905273ffffffffffffffffffffffffffffffffffffffff90911690639dc29fac90604401600060405180830381600087803b158015610be857600080fd5b505af1158015610bfc573d6000803e3d6000fd5b50506040518381523392507f537f2a665b8a33c6ca7eed303f6028a727fe7afc995f36b326c612190aa8aa1a915060200160405180910390a250565b610c423382611424565b6002546040517f205c28780000000000000000000000000000000000000000000000000000000081523360048201526024810183905273ffffffffffffffffffffffffffffffffffffffff9091169063205c287890604401600060405180830381600087803b158015610cb457600080fd5b505af1158015610cc8573d6000803e3d6000fd5b5050505050565b6000610cda426118d0565b9050610ce581611969565b610cf03383836119b9565b6002546040517f23b872dd0000000000000000000000000000000000000000000000000000000081523360048201523060248201526044810184905273ffffffffffffffffffffffffffffffffffffffff909116906323b872dd906064016020604051808303816000875af1158015610d6d573d6000803e3d6000fd5b505050506040513d601f19601f820116820180604052508101906109ab9190611f53565b6000610d9c426118d0565b9050610da781611969565b610db23334836119b9565b600260009054906101000a900473ffffffffffffffffffffffffffffffffffffffff1673ffffffffffffffffffffffffffffffffffffffff1663d0e30db0346040518263ffffffff1660e01b81526004016000604051808303818588803b158015610e1c57600080fd5b505af1158015610e30573d6000803e3d6000fd5b505050505050565b7fa49807205ce4d355092ef5a8a18f56e8913cf4a201fbe287825b095693c21775610e6281611665565b8415610e6e5760038590555b8315610e7a5760058490555b8215610e865760068390555b8115610cc85750600755505050565b6000610ea0426118d0565b90506000610eae83836118ee565b73ffffffffffffffffffffffffffffffffffffffff84166000908152600860205260408120849055600480549293508392909190610eed908490611fa4565b909155505073ffffffffffffffffffffffffffffffffffffffff831660009081526009602052604081208054839290610f27908490611fb7565b909155505060405173ffffffffffffffffffffffffffffffffffffffff84169082156108fc029083906000818181858888f19350505050158015610f6f573d6000803e3d6000fd5b506040805173ffffffffffffffffffffffffffffffffffffffff85168152602081018390529081018390527f48f1e4b8fb0469595617480e6784e40ab6b8c49209761b8e09305bf7b73e53de9060600160405180910390a1505050565b7f9f2df0fed2c77648de5860a4cc508cd0818c85b8b8a1ab4ceeef8d981c8956a6610ff681611665565b67016345785d8a00008310158015611023575073ffffffffffffffffffffffffffffffffffffffff841631155b156110855761103a67016345785d8a000084611fa4565b60405190935073ffffffffffffffffffffffffffffffffffffffff85169060009067016345785d8a00009082818181858883f19350505050158015611083573d6000803e3d6000fd5b505b6000611092858585611a70565b90508015611132576001546040517fe2ab691d00000000000000000000000000000000000000000000000000000000815273ffffffffffffffffffffffffffffffffffffffff878116600483015260248201879052604482018490529091169063e2ab691d90606401600060405180830381600087803b15801561111557600080fd5b505af1158015611129573d6000803e3d6000fd5b505050506111bf565b6001546040517f40c10f1900000000000000000000000000000000000000000000000000000000815273ffffffffffffffffffffffffffffffffffffffff878116600483015260248201879052909116906340c10f1990604401600060405180830381600087803b1580156111a657600080fd5b505af11580156111ba573d6000803e3d6000fd5b505050505b604080518581526020810185905273ffffffffffffffffffffffffffffffffffffffff8716917f6631b5b7aa2f756a96856e36a5103bea74b5fec3820fa3888b11d1be7195db80910160405180910390a25050505050565b60008281526020819052604090206001015461123281611665565b61094c838361176e565b600060065482111561124e5760065491505b73ffffffffffffffffffffffffffffffffffffffff83166000908152600860205260408120549061127f8583611829565b73ffffffffffffffffffffffffffffffffffffffff861660009081526002820160209081526040808320546001808601909352908320549394509291906112c586611920565b6112cf9190611fa4565b60045490915060005b88871015611417576000876006546112f09190611fa4565b846112fb8589611fca565b6113059190612010565b61130f9190612010565b905061131b8184611fa4565b92506113278183611fb7565b9150876113338161204b565b985050600a600089815260200190815260200160002060030160008c73ffffffffffffffffffffffffffffffffffffffff1673ffffffffffffffffffffffffffffffffffffffff16815260200190815260200160002054600003611399578495506113df565b6000888152600a6020908152604080832073ffffffffffffffffffffffffffffffffffffffff8f1684526002810183528184205460019091019092529091205490965094505b6000888152600a602052604090205415611411576000888152600a602052604090205461140e90600190611fa4565b93505b506112d8565b9998505050505050505050565b60035442101561147a576003546006546040517f41a56d08000000000000000000000000000000000000000000000000000000008152600481019290925260248201524260448201526064015b60405180910390fd5b6000611485426118d0565b905060065481111561149657506006545b60006114a28483611c3a565b73ffffffffffffffffffffffffffffffffffffffff8516600090815260018201602052604090205490915083111561153f5773ffffffffffffffffffffffffffffffffffffffff84166000818152600183016020526040908190205490517fdb42144d0000000000000000000000000000000000000000000000000000000081526004810192909252602482015260448101849052606401611471565b828160000160008282546115539190611fa4565b909155505073ffffffffffffffffffffffffffffffffffffffff841660009081526001820160205260408120805485929061158f908490611fa4565b909155505073ffffffffffffffffffffffffffffffffffffffff84166000908152600182016020908152604080832054600285019092529091205411156116075773ffffffffffffffffffffffffffffffffffffffff8416600090815260018201602090815260408083205460028501909252909120555b6040805173ffffffffffffffffffffffffffffffffffffffff86168152602081018590529081018390527ff960dbf9e5d0682f7a298ed974e33a28b4464914b7a2bfac12ae419a9afeb280906060015b60405180910390a150505050565b61166f8133611d70565b50565b60008281526020818152604080832073ffffffffffffffffffffffffffffffffffffffff8516845290915281205460ff166117665760008381526020818152604080832073ffffffffffffffffffffffffffffffffffffffff86168452909152902080547fffffffffffffffffffffffffffffffffffffffffffffffffffffffffffffff001660011790556117043390565b73ffffffffffffffffffffffffffffffffffffffff168273ffffffffffffffffffffffffffffffffffffffff16847f2f8788117e7eff1d82e926ec794901d17c78024a50270940304540a733656f0d60405160405180910390a4506001610865565b506000610865565b60008281526020818152604080832073ffffffffffffffffffffffffffffffffffffffff8516845290915281205460ff16156117665760008381526020818152604080832073ffffffffffffffffffffffffffffffffffffffff8616808552925280832080547fffffffffffffffffffffffffffffffffffffffffffffffffffffffffffffff0016905551339286917ff6391f5c32d9c69d2a47ea670b442974b53935d1edc7fd64eb21e047a839171b9190a4506001610865565b73ffffffffffffffffffffffffffffffffffffffff821660009081527f13da86008ba1c6922daee3e07db95305ef49ebced9f5467a0b8613fcc6b343e660205260408120545b828111801561187e5750600081115b156118bb576000908152600a6020908152604080832073ffffffffffffffffffffffffffffffffffffffff8716845260030190915290205461186f565b6000908152600a602052604090209392505050565b6000610e106003548303816118e7576118e7611fe1565b0492915050565b6000600354421080611901575060075482105b1561190e57506000610865565b6108778360075484610a489190611fa4565b60005b6000828152600a602052604090205415801561193f5750600082115b15611956578161194e81612083565b925050611923565b506000908152600a602052604090205490565b600654811061166f576003546006546040517fb943a41900000000000000000000000000000000000000000000000000000000815260048101929092526024820152426044820152606401611471565b60006119c58483611c3a565b9050828160000160008282546119db9190611fb7565b909155505073ffffffffffffffffffffffffffffffffffffffff8416600090815260018201602052604081208054859290611a17908490611fb7565b90915550506040805173ffffffffffffffffffffffffffffffffffffffff86168152602081018590529081018390527f5af417134f72a9d41143ace85b0a26dce6f550f894f2cbc1eeee8810603d91b690606001611657565b600080611a7c426118d0565b90506005548110611a91576000915050610877565b600083600103611aa35750600a611abb565b83600203611ab357506014611abb565b5060039250601e5b60006064611ac98388611fca565b611ad39190612010565b90508673ffffffffffffffffffffffffffffffffffffffff167f8c32c568416fcf97be35ce5b27844cfddcd63a67a1a602c3595ba5dac38f303a82604051611b1d91815260200190565b60405180910390a28060046000828254611b379190611fa4565b909155505073ffffffffffffffffffffffffffffffffffffffff871660009081526009602052604081208054839290611b71908490611fb7565b9091555050600254604080517fd0e30db0000000000000000000000000000000000000000000000000000000008152905173ffffffffffffffffffffffffffffffffffffffff9092169163d0e30db0918491600480830192600092919082900301818588803b158015611be357600080fd5b505af1158015611bf7573d6000803e3d6000fd5b5050505050611c078782856119b9565b610e1085600554611c189190611fb7565b611c229190611fca565b600354611c2f9190611fb7565b979650505050505050565b73ffffffffffffffffffffffffffffffffffffffff821660009081527f13da86008ba1c6922daee3e07db95305ef49ebced9f5467a0b8613fcc6b343e6602052604081205482811015611d5b576000818152600a6020818152604080842073ffffffffffffffffffffffffffffffffffffffff891680865260019182018452828620548987529484528286209086529081018352818520849055600201909152909120819055611ce984611920565b6000858152600a6020818152604080842094855573ffffffffffffffffffffffffffffffffffffffff8a168452600385018252808420969096557f13da86008ba1c6922daee3e07db95305ef49ebced9f5467a0b8613fcc6b343e6815294822087905590869052909252509050610865565b6000908152600a602052604090209050610865565b60008281526020818152604080832073ffffffffffffffffffffffffffffffffffffffff8516845290915290205460ff16610923576040517fe2517d3f00000000000000000000000000000000000000000000000000000000815273ffffffffffffffffffffffffffffffffffffffff8216600482015260248101839052604401611471565b600060208284031215611e0857600080fd5b81357fffffffff000000000000000000000000000000000000000000000000000000008116811461087757600080fd5b73ffffffffffffffffffffffffffffffffffffffff8116811461166f57600080fd5b600060208284031215611e6c57600080fd5b813561087781611e38565b60008060408385031215611e8a57600080fd5b8235611e9581611e38565b946020939093013593505050565b600060208284031215611eb557600080fd5b5035919050565b60008060408385031215611ecf57600080fd5b823591506020830135611ee181611e38565b809150509250929050565b60008060008060808587031215611f0257600080fd5b5050823594602084013594506040840135936060013592509050565b600080600060608486031215611f3357600080fd5b8335611f3e81611e38565b95602085013595506040909401359392505050565b600060208284031215611f6557600080fd5b8151801515811461087757600080fd5b7f4e487b7100000000000000000000000000000000000000000000000000000000600052601160045260246000fd5b8181038181111561086557610865611f75565b8082018082111561086557610865611f75565b808202811582820484141761086557610865611f75565b7f4e487b7100000000000000000000000000000000000000000000000000000000600052601260045260246000fd5b600082612046577f4e487b7100000000000000000000000000000000000000000000000000000000600052601260045260246000fd5b500490565b60007fffffffffffffffffffffffffffffffffffffffffffffffffffffffffffffffff820361207c5761207c611f75565b5060010190565b60008161209257612092611f75565b507fffffffffffffffffffffffffffffffffffffffffffffffffffffffffffffffff019056fea264697066735822122071cc4e4c46c4aa38e94937327cd634f4932d375524bb592f3b2f6cfa9c60c95964736f6c634300081800339f2df0fed2c77648de5860a4cc508cd0818c85b8b8a1ab4ceeef8d981c8956a6a49807205ce4d355092ef5a8a18f56e8913cf4a201fbe287825b095693c21775",
  "linkReferences": {},
  "deployedLinkReferences": {}
}