{
  "_format": "hh-sol-artifact-1",
  "contractName": "QdayCore",
  "sourceName": "contracts/QdayCore.sol",
  "abi": [
    {
      "inputs": [],
      "name": "AccessControlBadConfirmation",
      "type": "error"
    },
    {
      "inputs": [
        {
          "internalType": "address",
          "name": "account",
          "type": "address"
        },
        {
          "internalType": "bytes32",
          "name": "neededRole",
          "type": "bytes32"
        }
      ],
      "name": "AccessControlUnauthorizedAccount",
      "type": "error"
    },
    {
      "inputs": [
        {
          "internalType": "address",
          "name": "account",
          "type": "address"
        },
        {
          "internalType": "uint256",
          "name": "balance",
          "type": "uint256"
        },
        {
          "internalType": "uint256",
          "name": "needed",
          "type": "uint256"
        }
      ],
      "name": "InsufficientBalance",
      "type": "error"
    },
    {
      "inputs": [
        {
          "internalType": "uint256",
          "name": "start",
          "type": "uint256"
        },
        {
          "internalType": "uint256",
          "name": "stakeDay",
          "type": "uint256"
        },
        {
          "internalType": "uint256",
          "name": "current",
          "type": "uint256"
        }
      ],
      "name": "InvalidStakeTime",
      "type": "error"
    },
    {
      "inputs": [
        {
          "internalType": "uint256",
          "name": "start",
          "type": "uint256"
        },
        {
          "internalType": "uint256",
          "name": "stakeDay",
          "type": "uint256"
        },
        {
          "internalType": "uint256",
          "name": "current",
          "type": "uint256"
        }
      ],
      "name": "InvalidUnstakeTime",
      "type": "error"
    },
    {
      "inputs": [
        {
          "internalType": "uint256",
          "name": "start",
          "type": "uint256"
        },
        {
          "internalType": "uint256",
          "name": "stakeDay",
          "type": "uint256"
        },
        {
          "internalType": "uint256",
          "name": "current",
          "type": "uint256"
        }
      ],
      "name": "InvalidWithdrawTime",
      "type": "error"
    },
    {
      "anonymous": false,
      "inputs": [
        {
          "indexed": true,
          "internalType": "address",
          "name": "to",
          "type": "address"
        },
        {
          "indexed": false,
          "internalType": "uint256",
          "name": "amount",
          "type": "uint256"
        }
      ],
      "name": "Airdrop",
      "type": "event"
    },
    {
      "anonymous": false,
      "inputs": [
        {
          "indexed": true,
          "internalType": "address",
          "name": "owner",
          "type": "address"
        },
        {
          "indexed": false,
          "internalType": "uint256",
          "name": "amount",
          "type": "uint256"
        }
      ],
      "name": "BurnWAbel",
      "type": "event"
    },
    {
      "anonymous": false,
      "inputs": [
        {
          "indexed": true,
          "internalType": "address",
          "name": "to",
          "type": "address"
        },
        {
          "indexed": false,
          "internalType": "uint256",
          "name": "amount",
          "type": "uint256"
        },
        {
          "indexed": false,
          "internalType": "uint256",
          "name": "lockDay",
          "type": "uint256"
        }
      ],
      "name": "MintWAbel",
      "type": "event"
    },
    {
      "anonymous": false,
      "inputs": [
        {
          "indexed": true,
          "internalType": "bytes32",
          "name": "role",
          "type": "bytes32"
        },
        {
          "indexed": true,
          "internalType": "bytes32",
          "name": "previousAdminRole",
          "type": "bytes32"
        },
        {
          "indexed": true,
          "internalType": "bytes32",
          "name": "newAdminRole",
          "type": "bytes32"
        }
      ],
      "name": "RoleAdminChanged",
      "type": "event"
    },
    {
      "anonymous": false,
      "inputs": [
        {
          "indexed": true,
          "internalType": "bytes32",
          "name": "role",
          "type": "bytes32"
        },
        {
          "indexed": true,
          "internalType": "address",
          "name": "account",
          "type": "address"
        },
        {
          "indexed": true,
          "internalType": "address",
          "name": "sender",
          "type": "address"
        }
      ],
      "name": "RoleGranted",
      "type": "event"
    },
    {
      "anonymous": false,
      "inputs": [
        {
          "indexed": true,
          "internalType": "bytes32",
          "name": "role",
          "type": "bytes32"
        },
        {
          "indexed": true,
          "internalType": "address",
          "name": "account",
          "type": "address"
        },
        {
          "indexed": true,
          "internalType": "address",
          "name": "sender",
          "type": "address"
        }
      ],
      "name": "RoleRevoked",
      "type": "event"
    },
    {
      "anonymous": false,
      "inputs": [
        {
          "indexed": false,
          "internalType": "address",
          "name": "account",
          "type": "address"
        },
        {
          "indexed": false,
          "internalType": "uint256",
          "name": "amount",
          "type": "uint256"
        },
        {
          "indexed": false,
          "internalType": "uint256",
          "name": "day",
          "type": "uint256"
        }
      ],
      "name": "Stake",
      "type": "event"
    },
    {
      "anonymous": false,
      "inputs": [
        {
          "indexed": false,
          "internalType": "address",
          "name": "account",
          "type": "address"
        },
        {
          "indexed": false,
          "internalType": "uint256",
          "name": "amount",
          "type": "uint256"
        },
        {
          "indexed": false,
          "internalType": "uint256",
          "name": "day",
          "type": "uint256"
        }
      ],
      "name": "Unstake",
      "type": "event"
    },
    {
      "anonymous": false,
      "inputs": [
        {
          "indexed": false,
          "internalType": "address",
          "name": "account",
          "type": "address"
        },
        {
          "indexed": false,
          "internalType": "uint256",
          "name": "amount",
          "type": "uint256"
        },
        {
          "indexed": false,
          "internalType": "uint256",
          "name": "day",
          "type": "uint256"
        }
      ],
      "name": "WithdrawReward",
      "type": "event"
    },
    {
      "inputs": [],
      "name": "ADMIN_ROLE",
      "outputs": [
        {
          "internalType": "bytes32",
          "name": "",
          "type": "bytes32"
        }
      ],
      "stateMutability": "view",
      "type": "function"
    },
    {
      "inputs": [],
      "name": "BURNER_ROLE",
      "outputs": [
        {
          "internalType": "bytes32",
          "name": "",
          "type": "bytes32"
        }
      ],
      "stateMutability": "view",
      "type": "function"
    },
    {
      "inputs": [],
      "name": "DAY_SECONDS",
      "outputs": [
        {
          "internalType": "uint256",
          "name": "",
          "type": "uint256"
        }
      ],
      "stateMutability": "view",
      "type": "function"
    },
    {
      "inputs": [],
      "name": "DEFAULT_ADMIN_ROLE",
      "outputs": [
        {
          "internalType": "bytes32",
          "name": "",
          "type": "bytes32"
        }
      ],
      "stateMutability": "view",
      "type": "function"
    },
    {
      "inputs": [],
      "name": "GAS_FEES",
      "outputs": [
        {
          "internalType": "uint256",
          "name": "",
          "type": "uint256"
        }
      ],
      "stateMutability": "view",
      "type": "function"
    },
    {
      "inputs": [],
      "name": "MINTER_ROLE",
      "outputs": [
        {
          "internalType": "bytes32",
          "name": "",
          "type": "bytes32"
        }
      ],
      "stateMutability": "view",
      "type": "function"
    },
    {
      "inputs": [],
      "name": "TOTAL_QDAY",
      "outputs": [
        {
          "internalType": "uint256",
          "name": "",
          "type": "uint256"
        }
      ],
      "stateMutability": "view",
      "type": "function"
    },
    {
      "inputs": [],
      "name": "airdropDay",
      "outputs": [
        {
          "internalType": "uint256",
          "name": "",
          "type": "uint256"
        }
      ],
      "stateMutability": "view",
      "type": "function"
    },
    {
      "inputs": [
        {
          "internalType": "uint256",
          "name": "amount",
          "type": "uint256"
        }
      ],
      "name": "burnWAbel",
      "outputs": [],
      "stateMutability": "nonpayable",
      "type": "function"
    },
    {
      "inputs": [
        {
          "internalType": "address",
          "name": "account",
          "type": "address"
        }
      ],
      "name": "claimedReward",
      "outputs": [
        {
          "internalType": "uint256",
          "name": "",
          "type": "uint256"
        }
      ],
      "stateMutability": "view",
      "type": "function"
    },
    {
      "inputs": [
        {
          "internalType": "bytes32",
          "name": "role",
          "type": "bytes32"
        }
      ],
      "name": "getRoleAdmin",
      "outputs": [
        {
          "internalType": "bytes32",
          "name": "",
          "type": "bytes32"
        }
      ],
      "stateMutability": "view",
      "type": "function"
    },
    {
      "inputs": [
        {
          "internalType": "bytes32",
          "name": "role",
          "type": "bytes32"
        },
        {
          "internalType": "address",
          "name": "account",
          "type": "address"
        }
      ],
      "name": "grantRole",
      "outputs": [],
      "stateMutability": "nonpayable",
      "type": "function"
    },
    {
      "inputs": [
        {
          "internalType": "bytes32",
          "name": "role",
          "type": "bytes32"
        },
        {
          "internalType": "address",
          "name": "account",
          "type": "address"
        }
      ],
      "name": "hasRole",
      "outputs": [
        {
          "internalType": "bool",
          "name": "",
          "type": "bool"
        }
      ],
      "stateMutability": "view",
      "type": "function"
    },
    {
      "inputs": [
        {
          "internalType": "contract WAbel",
          "name": "wAbel_",
          "type": "address"
        },
        {
          "internalType": "contract VeQday",
          "name": "veQday_",
          "type": "address"
        },
        {
          "internalType": "uint256",
          "name": "startTime_",
          "type": "uint256"
        }
      ],
      "name": "initialize",
      "outputs": [],
      "stateMutability": "payable",
      "type": "function"
    },
    {
      "inputs": [],
      "name": "lockDay",
      "outputs": [
        {
          "internalType": "uint256",
          "name": "",
          "type": "uint256"
        }
      ],
      "stateMutability": "view",
      "type": "function"
    },
    {
      "inputs": [
        {
          "internalType": "address",
          "name": "to_",
          "type": "address"
        },
        {
          "internalType": "uint256",
          "name": "amount_",
          "type": "uint256"
        },
        {
          "internalType": "uint256",
          "name": "lockDay_",
          "type": "uint256"
        }
      ],
      "name": "mintWAbel",
      "outputs": [],
      "stateMutability": "nonpayable",
      "type": "function"
    },
    {
      "inputs": [],
      "name": "overQday",
      "outputs": [
        {
          "internalType": "uint256",
          "name": "",
          "type": "uint256"
        }
      ],
      "stateMutability": "view",
      "type": "function"
    },
    {
      "inputs": [
        {
          "internalType": "bytes32",
          "name": "role",
          "type": "bytes32"
        },
        {
          "internalType": "address",
          "name": "callerConfirmation",
          "type": "address"
        }
      ],
      "name": "renounceRole",
      "outputs": [],
      "stateMutability": "nonpayable",
      "type": "function"
    },
    {
      "inputs": [
        {
          "internalType": "bytes32",
          "name": "role",
          "type": "bytes32"
        },
        {
          "internalType": "address",
          "name": "account",
          "type": "address"
        }
      ],
      "name": "revokeRole",
      "outputs": [],
      "stateMutability": "nonpayable",
      "type": "function"
    },
    {
      "inputs": [
        {
          "internalType": "address",
          "name": "account",
          "type": "address"
        },
        {
          "internalType": "uint256",
          "name": "day",
          "type": "uint256"
        }
      ],
      "name": "reward",
      "outputs": [
        {
          "internalType": "uint256",
          "name": "",
          "type": "uint256"
        }
      ],
      "stateMutability": "view",
      "type": "function"
    },
    {
      "inputs": [
        {
          "internalType": "address",
          "name": "account",
          "type": "address"
        }
      ],
      "name": "reward",
      "outputs": [
        {
          "internalType": "uint256",
          "name": "",
          "type": "uint256"
        }
      ],
      "stateMutability": "view",
      "type": "function"
    },
    {
      "inputs": [
        {
          "internalType": "uint256",
          "name": "amount",
          "type": "uint256"
        }
      ],
      "name": "stake",
      "outputs": [],
      "stateMutability": "nonpayable",
      "type": "function"
    },
    {
      "inputs": [],
      "name": "stakeDay",
      "outputs": [
        {
          "internalType": "uint256",
          "name": "",
          "type": "uint256"
        }
      ],
      "stateMutability": "view",
      "type": "function"
    },
    {
      "inputs": [],
      "name": "stakeWithQday",
      "outputs": [],
      "stateMutability": "payable",
      "type": "function"
    },
    {
      "inputs": [],
      "name": "startTime",
      "outputs": [
        {
          "internalType": "uint256",
          "name": "",
          "type": "uint256"
        }
      ],
      "stateMutability": "view",
      "type": "function"
    },
    {
      "inputs": [
        {
          "internalType": "bytes4",
          "name": "interfaceId",
          "type": "bytes4"
        }
      ],
      "name": "supportsInterface",
      "outputs": [
        {
          "internalType": "bool",
          "name": "",
          "type": "bool"
        }
      ],
      "stateMutability": "view",
      "type": "function"
    },
    {
      "inputs": [],
      "name": "totalReward",
      "outputs": [
        {
          "internalType": "uint256",
          "name": "",
          "type": "uint256"
        }
      ],
      "stateMutability": "view",
      "type": "function"
    },
    {
      "inputs": [
        {
          "internalType": "uint256",
          "name": "day",
          "type": "uint256"
        }
      ],
      "name": "totalStake",
      "outputs": [
        {
          "internalType": "uint256",
          "name": "",
          "type": "uint256"
        }
      ],
      "stateMutability": "view",
      "type": "function"
    },
    {
      "inputs": [],
      "name": "totalStake",
      "outputs": [
        {
          "internalType": "uint256",
          "name": "",
          "type": "uint256"
        }
      ],
      "stateMutability": "view",
      "type": "function"
    },
    {
      "inputs": [
        {
          "internalType": "address",
          "name": "account",
          "type": "address"
        }
      ],
      "name": "unlockedReward",
      "outputs": [
        {
          "internalType": "uint256",
          "name": "",
          "type": "uint256"
        }
      ],
      "stateMutability": "view",
      "type": "function"
    },
    {
      "inputs": [
        {
          "internalType": "uint256",
          "name": "amount",
          "type": "uint256"
        }
      ],
      "name": "unstake",
      "outputs": [],
      "stateMutability": "nonpayable",
      "type": "function"
    },
    {
      "inputs": [
        {
          "internalType": "uint256",
          "name": "amount",
          "type": "uint256"
        }
      ],
      "name": "unstakeWithQday",
      "outputs": [],
      "stateMutability": "nonpayable",
      "type": "function"
    },
    {
      "inputs": [
        {
          "internalType": "uint256",
          "name": "startTime_",
          "type": "uint256"
        },
        {
          "internalType": "uint256",
          "name": "airdropDay_",
          "type": "uint256"
        },
        {
          "internalType": "uint256",
          "name": "stakeDay_",
          "type": "uint256"
        },
        {
          "internalType": "uint256",
          "name": "lockDay_",
          "type": "uint256"
        }
      ],
      "name": "updateParams",
      "outputs": [],
      "stateMutability": "nonpayable",
      "type": "function"
    },
    {
      "inputs": [
        {
          "internalType": "address",
          "name": "account",
          "type": "address"
        },
        {
          "internalType": "uint256",
          "name": "day",
          "type": "uint256"
        }
      ],
      "name": "userStake",
      "outputs": [
        {
          "internalType": "uint256",
          "name": "",
          "type": "uint256"
        }
      ],
      "stateMutability": "view",
      "type": "function"
    },
    {
      "inputs": [
        {
          "internalType": "address",
          "name": "account",
          "type": "address"
        }
      ],
      "name": "userStake",
      "outputs": [
        {
          "internalType": "uint256",
          "name": "",
          "type": "uint256"
        }
      ],
      "stateMutability": "view",
      "type": "function"
    },
    {
      "inputs": [],
      "name": "veQday",
      "outputs": [
        {
          "internalType": "contract VeQday",
          "name": "",
          "type": "address"
        }
      ],
      "stateMutability": "view",
      "type": "function"
    },
    {
      "inputs": [],
      "name": "wAbel",
      "outputs": [
        {
          "internalType": "contract WAbel",
          "name": "",
          "type": "address"
        }
      ],
      "stateMutability": "view",
      "type": "function"
    },
    {
      "inputs": [
        {
          "internalType": "address payable",
          "name": "to",
          "type": "address"
        },
        {
          "internalType": "uint256",
          "name": "value",
          "type": "uint256"
        }
      ],
      "name": "withdrawQday",
      "outputs": [],
      "stateMutability": "nonpayable",
      "type": "function"
    },
    {
      "inputs": [
        {
          "internalType": "address payable",
          "name": "account",
          "type": "address"
        }
      ],
      "name": "withdrawReward",
      "outputs": [],
      "stateMutability": "nonpayable",
      "type": "function"
    },
    {
      "stateMutability": "payable",
      "type": "receive"
    }
  ],
  "bytecode": "0x608060405234801561001057600080fd5b50612379806100206000396000f3fe6080604052600436106102a45760003560e01c80636ed7d8bb1161016e578063ab91bc8f116100cb578063c39855841161007f578063d547741f11610064578063d547741f146107b8578063df3b6130146107d8578063f6fcca26146107ee57600080fd5b8063c39855841461076e578063d53913931461078457600080fd5b8063b86e321c116100b0578063b86e321c14610718578063b8b2fcf514610738578063b9ffbe671461074e57600080fd5b8063ab91bc8f146106f0578063b0557bf1146106f857600080fd5b806391d1485411610122578063a17d02b211610107578063a17d02b21461069b578063a217fddf146106bb578063a694fc3a146106d057600080fd5b806391d148541461062a5780639ff18bdd1461067b57600080fd5b806375b238fc1161015357806375b238fc146105cb57806378e97925146105ff5780638b0e9f3f1461061557600080fd5b80636ed7d8bb14610596578063750142e6146105b657600080fd5b806336568abe1161021c57806351ac2845116101d05780635ab633cd116101b55780635ab633cd146105365780636353586b1461055657806368e5585d1461057657600080fd5b806351ac28451461050a57806358e6d53c1461052057600080fd5b80633937ea4f116102015780633937ea4f1461049d578063465c8685146104bd57806349d4a52a146104dd57600080fd5b806336568abe1461046157806337b3b15c1461048157600080fd5b806321670f2211610273578063282c51f311610258578063282c51f3146103ed5780632e17de78146104215780632f2ff15d1461044157600080fd5b806321670f221461039d578063248a9ca3146103bd57600080fd5b806301ffc9a7146102b05780631794bb3c146102e557806318a0cf45146102fa5780631e6f3d8a1461034c57600080fd5b366102ab57005b600080fd5b3480156102bc57600080fd5b506102d06102cb366004612040565b61080b565b60405190151581526020015b60405180910390f35b6102f86102f33660046120a4565b6108a4565b005b34801561030657600080fd5b506001546103279073ffffffffffffffffffffffffffffffffffffffff1681565b60405173ffffffffffffffffffffffffffffffffffffffff90911681526020016102dc565b34801561035857600080fd5b5061038f6103673660046120e5565b73ffffffffffffffffffffffffffffffffffffffff1660009081526009602052604090205490565b6040519081526020016102dc565b3480156103a957600080fd5b5061038f6103b8366004612102565b610a6a565b3480156103c957600080fd5b5061038f6103d836600461212e565b60009081526020819052604090206001015490565b3480156103f957600080fd5b5061038f7f3c11d16cbaffd01df69ce1c404f6340ee057498f5f00246190ea54220576a84881565b34801561042d57600080fd5b506102f861043c36600461212e565b610a7d565b34801561044d57600080fd5b506102f861045c366004612147565b610b26565b34801561046d57600080fd5b506102f861047c366004612147565b610b51565b34801561048d57600080fd5b5061038f67016345785d8a000081565b3480156104a957600080fd5b5061038f6104b8366004612102565b610baf565b3480156104c957600080fd5b5061038f6104d83660046120e5565b610beb565b3480156104e957600080fd5b506002546103279073ffffffffffffffffffffffffffffffffffffffff1681565b34801561051657600080fd5b5061038f60075481565b34801561052c57600080fd5b5061038f610e1081565b34801561054257600080fd5b5061038f61055136600461212e565b610bff565b34801561056257600080fd5b5061038f6105713660046120e5565b610c26565b34801561058257600080fd5b5061038f6105913660046120e5565b610c4c565b3480156105a257600080fd5b506102f86105b1366004612102565b610ca1565b3480156105c257600080fd5b5061038f610d0e565b3480156105d757600080fd5b5061038f7fa49807205ce4d355092ef5a8a18f56e8913cf4a201fbe287825b095693c2177581565b34801561060b57600080fd5b5061038f60035481565b34801561062157600080fd5b5061038f610d2c565b34801561063657600080fd5b506102d0610645366004612147565b60009182526020828152604080842073ffffffffffffffffffffffffffffffffffffffff93909316845291905290205460ff1690565b34801561068757600080fd5b506102f861069636600461212e565b610d75565b3480156106a757600080fd5b506102f86106b636600461212e565b610e37565b3480156106c757600080fd5b5061038f600081565b3480156106dc57600080fd5b506102f86106eb36600461212e565b610ece565b6102f8610f90565b34801561070457600080fd5b506102f8610713366004612177565b611037565b34801561072457600080fd5b506102f86107333660046120e5565b611094565b34801561074457600080fd5b5061038f60065481565b34801561075a57600080fd5b506102f86107693660046121a9565b6111cb565b34801561077a57600080fd5b5061038f60055481565b34801561079057600080fd5b5061038f7f9f2df0fed2c77648de5860a4cc508cd0818c85b8b8a1ab4ceeef8d981c8956a681565b3480156107c457600080fd5b506102f86107d3366004612147565b611416565b3480156107e457600080fd5b5061038f60045481565b3480156107fa57600080fd5b5061038f6805f68e8131ecf8000081565b60007fffffffff0000000000000000000000000000000000000000000000000000000082167f7965db0b00000000000000000000000000000000000000000000000000000000148061089e57507f01ffc9a7000000000000000000000000000000000000000000000000000000007fffffffff000000000000000000000000000000000000000000000000000000008316145b92915050565b600354156108b157600080fd5b6108db7fa49807205ce4d355092ef5a8a18f56e8913cf4a201fbe287825b095693c217753361143b565b506109267f9f2df0fed2c77648de5860a4cc508cd0818c85b8b8a1ab4ceeef8d981c8956a67fa49807205ce4d355092ef5a8a18f56e8913cf4a201fbe287825b095693c21775611537565b6109707f3c11d16cbaffd01df69ce1c404f6340ee057498f5f00246190ea54220576a8487fa49807205ce4d355092ef5a8a18f56e8913cf4a201fbe287825b095693c21775611537565b61099a7f9f2df0fed2c77648de5860a4cc508cd0818c85b8b8a1ab4ceeef8d981c8956a63361143b565b506109c57f3c11d16cbaffd01df69ce1c404f6340ee057498f5f00246190ea54220576a8483361143b565b506001805473ffffffffffffffffffffffffffffffffffffffff9485167fffffffffffffffffffffffff000000000000000000000000000000000000000091821617825560028054949095169316929092179092556003919091556805f68e8131ecf80000600455600760058190556107d060065581905560008052600a6020527f13da86008ba1c6922daee3e07db95305ef49ebced9f5467a0b8613fcc6b343e355565b6000610a768383611582565b9392505050565b610a87338261176a565b6002546040517fa9059cbb0000000000000000000000000000000000000000000000000000000081523360048201526024810183905273ffffffffffffffffffffffffffffffffffffffff9091169063a9059cbb906044016020604051808303816000875af1158015610afe573d6000803e3d6000fd5b505050506040513d601f19601f82011682018060405250810190610b2291906121de565b5050565b600082815260208190526040902060010154610b41816119ab565b610b4b838361143b565b50505050565b73ffffffffffffffffffffffffffffffffffffffff81163314610ba0576040517f6697b23200000000000000000000000000000000000000000000000000000000815260040160405180910390fd5b610baa82826119b8565b505050565b6000610bbb8383611a73565b73ffffffffffffffffffffffffffffffffffffffff93909316600090815260019093016020525050604090205490565b600061089e82610bfa42611b1a565b611b38565b6000600654821115610c115760065491505b6001610c1c83611b6a565b61089e919061222f565b6000600354421015610c3a57506000919050565b61089e82610c4742611b1a565b611582565b6000600354421015610c6057506000919050565b610c7282610c6d42611b1a565b611a73565b73ffffffffffffffffffffffffffffffffffffffff909216600090815260019290920160205250604090205490565b7fa49807205ce4d355092ef5a8a18f56e8913cf4a201fbe287825b095693c21775610ccb816119ab565b60405173ffffffffffffffffffffffffffffffffffffffff84169083156108fc029084906000818181858888f19350505050158015610b4b573d6000803e3d6000fd5b60006004546805f68e8131ecf80000610d27919061222f565b905090565b6000600354421015610d3e5750600090565b6000610d4942611b1a565b9050600654811115610d5a57506006545b6001610d6582611b6a565b610d6f919061222f565b91505090565b6001546040517f9dc29fac0000000000000000000000000000000000000000000000000000000081523360048201526024810183905273ffffffffffffffffffffffffffffffffffffffff90911690639dc29fac90604401600060405180830381600087803b158015610de757600080fd5b505af1158015610dfb573d6000803e3d6000fd5b50506040518381523392507f537f2a665b8a33c6ca7eed303f6028a727fe7afc995f36b326c612190aa8aa1a915060200160405180910390a250565b610e41338261176a565b6002546040517f205c28780000000000000000000000000000000000000000000000000000000081523360048201526024810183905273ffffffffffffffffffffffffffffffffffffffff9091169063205c287890604401600060405180830381600087803b158015610eb357600080fd5b505af1158015610ec7573d6000803e3d6000fd5b5050505050565b6000610ed942611b1a565b9050610ee481611bb3565b610eef338383611c03565b6002546040517f23b872dd0000000000000000000000000000000000000000000000000000000081523360048201523060248201526044810184905273ffffffffffffffffffffffffffffffffffffffff909116906323b872dd906064016020604051808303816000875af1158015610f6c573d6000803e3d6000fd5b505050506040513d601f19601f82011682018060405250810190610baa91906121de565b6000610f9b42611b1a565b9050610fa681611bb3565b610fb1333483611c03565b600260009054906101000a900473ffffffffffffffffffffffffffffffffffffffff1673ffffffffffffffffffffffffffffffffffffffff1663d0e30db0346040518263ffffffff1660e01b81526004016000604051808303818588803b15801561101b57600080fd5b505af115801561102f573d6000803e3d6000fd5b505050505050565b7fa49807205ce4d355092ef5a8a18f56e8913cf4a201fbe287825b095693c21775611061816119ab565b841561106d5760038590555b83156110795760058490555b82156110855760068390555b8115610ec75750600755505050565b600061109f42611b1a565b905060006110ad8383611b38565b73ffffffffffffffffffffffffffffffffffffffff841660009081526008602052604081208490556004805492935083929091906110ec90849061222f565b909155505073ffffffffffffffffffffffffffffffffffffffff831660009081526009602052604081208054839290611126908490612242565b909155505060405173ffffffffffffffffffffffffffffffffffffffff84169082156108fc029083906000818181858888f1935050505015801561116e573d6000803e3d6000fd5b506040805173ffffffffffffffffffffffffffffffffffffffff85168152602081018390529081018390527f48f1e4b8fb0469595617480e6784e40ab6b8c49209761b8e09305bf7b73e53de9060600160405180910390a1505050565b7f9f2df0fed2c77648de5860a4cc508cd0818c85b8b8a1ab4ceeef8d981c8956a66111f5816119ab565b67016345785d8a00008310158015611222575073ffffffffffffffffffffffffffffffffffffffff841631155b156112845761123967016345785d8a00008461222f565b60405190935073ffffffffffffffffffffffffffffffffffffffff85169060009067016345785d8a00009082818181858883f19350505050158015611282573d6000803e3d6000fd5b505b6000611291858585611cba565b90508015611331576001546040517fe2ab691d00000000000000000000000000000000000000000000000000000000815273ffffffffffffffffffffffffffffffffffffffff878116600483015260248201879052604482018490529091169063e2ab691d90606401600060405180830381600087803b15801561131457600080fd5b505af1158015611328573d6000803e3d6000fd5b505050506113be565b6001546040517f40c10f1900000000000000000000000000000000000000000000000000000000815273ffffffffffffffffffffffffffffffffffffffff878116600483015260248201879052909116906340c10f1990604401600060405180830381600087803b1580156113a557600080fd5b505af11580156113b9573d6000803e3d6000fd5b505050505b604080518581526020810185905273ffffffffffffffffffffffffffffffffffffffff8716917f6631b5b7aa2f756a96856e36a5103bea74b5fec3820fa3888b11d1be7195db80910160405180910390a25050505050565b600082815260208190526040902060010154611431816119ab565b610b4b83836119b8565b60008281526020818152604080832073ffffffffffffffffffffffffffffffffffffffff8516845290915281205460ff1661152f5760008381526020818152604080832073ffffffffffffffffffffffffffffffffffffffff86168452909152902080547fffffffffffffffffffffffffffffffffffffffffffffffffffffffffffffff001660011790556114cd3390565b73ffffffffffffffffffffffffffffffffffffffff168273ffffffffffffffffffffffffffffffffffffffff16847f2f8788117e7eff1d82e926ec794901d17c78024a50270940304540a733656f0d60405160405180910390a450600161089e565b50600061089e565b600082815260208190526040808220600101805490849055905190918391839186917fbd79b86ffe0ab8e8776151514217cd7cacd52c909f66475c3af44e129f0b00ff9190a4505050565b60006006548211156115945760065491505b73ffffffffffffffffffffffffffffffffffffffff8316600090815260086020526040812054906115c58583611a73565b73ffffffffffffffffffffffffffffffffffffffff8616600090815260028201602090815260408083205460018086019093529083205493945092919061160b86611b6a565b611615919061222f565b60045490915060005b8887101561175d57600087600654611636919061222f565b846116418589612255565b61164b919061229b565b611655919061229b565b9050611661818461222f565b925061166d8183612242565b915087611679816122d6565b985050600a600089815260200190815260200160002060030160008c73ffffffffffffffffffffffffffffffffffffffff1673ffffffffffffffffffffffffffffffffffffffff168152602001908152602001600020546000036116df57849550611725565b6000888152600a6020908152604080832073ffffffffffffffffffffffffffffffffffffffff8f1684526002810183528184205460019091019092529091205490965094505b6000888152600a602052604090205415611757576000888152600a60205260409020546117549060019061222f565b93505b5061161e565b9998505050505050505050565b6003544210156117c0576003546006546040517f41a56d08000000000000000000000000000000000000000000000000000000008152600481019290925260248201524260448201526064015b60405180910390fd5b60006117cb42611b1a565b90506006548111156117dc57506006545b60006117e88483611e84565b73ffffffffffffffffffffffffffffffffffffffff851660009081526001820160205260409020549091508311156118855773ffffffffffffffffffffffffffffffffffffffff84166000818152600183016020526040908190205490517fdb42144d00000000000000000000000000000000000000000000000000000000815260048101929092526024820152604481018490526064016117b7565b82816000016000828254611899919061222f565b909155505073ffffffffffffffffffffffffffffffffffffffff84166000908152600182016020526040812080548592906118d590849061222f565b909155505073ffffffffffffffffffffffffffffffffffffffff841660009081526001820160209081526040808320546002850190925290912054111561194d5773ffffffffffffffffffffffffffffffffffffffff8416600090815260018201602090815260408083205460028501909252909120555b6040805173ffffffffffffffffffffffffffffffffffffffff86168152602081018590529081018390527ff960dbf9e5d0682f7a298ed974e33a28b4464914b7a2bfac12ae419a9afeb280906060015b60405180910390a150505050565b6119b58133611fba565b50565b60008281526020818152604080832073ffffffffffffffffffffffffffffffffffffffff8516845290915281205460ff161561152f5760008381526020818152604080832073ffffffffffffffffffffffffffffffffffffffff8616808552925280832080547fffffffffffffffffffffffffffffffffffffffffffffffffffffffffffffff0016905551339286917ff6391f5c32d9c69d2a47ea670b442974b53935d1edc7fd64eb21e047a839171b9190a450600161089e565b73ffffffffffffffffffffffffffffffffffffffff821660009081527f13da86008ba1c6922daee3e07db95305ef49ebced9f5467a0b8613fcc6b343e660205260408120545b8281118015611ac85750600081115b15611b05576000908152600a6020908152604080832073ffffffffffffffffffffffffffffffffffffffff87168452600301909152902054611ab9565b6000908152600a602052604090209392505050565b6000610e10600354830381611b3157611b3161226c565b0492915050565b6000600354421080611b4b575060075482105b15611b585750600061089e565b610a768360075484610c47919061222f565b60005b6000828152600a6020526040902054158015611b895750600082115b15611ba05781611b988161230e565b925050611b6d565b506000908152600a602052604090205490565b60065481106119b5576003546006546040517fb943a419000000000000000000000000000000000000000000000000000000008152600481019290925260248201524260448201526064016117b7565b6000611c0f8483611e84565b905082816000016000828254611c259190612242565b909155505073ffffffffffffffffffffffffffffffffffffffff8416600090815260018201602052604081208054859290611c61908490612242565b90915550506040805173ffffffffffffffffffffffffffffffffffffffff86168152602081018590529081018390527f5af417134f72a9d41143ace85b0a26dce6f550f894f2cbc1eeee8810603d91b69060600161199d565b600080611cc642611b1a565b90506005548110611cdb576000915050610a76565b600083600103611ced5750600a611d05565b83600203611cfd57506014611d05565b5060039250601e5b60006064611d138388612255565b611d1d919061229b565b90508673ffffffffffffffffffffffffffffffffffffffff167f8c32c568416fcf97be35ce5b27844cfddcd63a67a1a602c3595ba5dac38f303a82604051611d6791815260200190565b60405180910390a28060046000828254611d81919061222f565b909155505073ffffffffffffffffffffffffffffffffffffffff871660009081526009602052604081208054839290611dbb908490612242565b9091555050600254604080517fd0e30db0000000000000000000000000000000000000000000000000000000008152905173ffffffffffffffffffffffffffffffffffffffff9092169163d0e30db0918491600480830192600092919082900301818588803b158015611e2d57600080fd5b505af1158015611e41573d6000803e3d6000fd5b5050505050611e51878285611c03565b610e1085600554611e629190612242565b611e6c9190612255565b600354611e799190612242565b979650505050505050565b73ffffffffffffffffffffffffffffffffffffffff821660009081527f13da86008ba1c6922daee3e07db95305ef49ebced9f5467a0b8613fcc6b343e6602052604081205482811015611fa5576000818152600a6020818152604080842073ffffffffffffffffffffffffffffffffffffffff891680865260019182018452828620548987529484528286209086529081018352818520849055600201909152909120819055611f3384611b6a565b6000858152600a6020818152604080842094855573ffffffffffffffffffffffffffffffffffffffff8a168452600385018252808420969096557f13da86008ba1c6922daee3e07db95305ef49ebced9f5467a0b8613fcc6b343e681529482208790559086905290925250905061089e565b6000908152600a60205260409020905061089e565b60008281526020818152604080832073ffffffffffffffffffffffffffffffffffffffff8516845290915290205460ff16610b22576040517fe2517d3f00000000000000000000000000000000000000000000000000000000815273ffffffffffffffffffffffffffffffffffffffff82166004820152602481018390526044016117b7565b60006020828403121561205257600080fd5b81357fffffffff0000000000000000000000000000000000000000000000000000000081168114610a7657600080fd5b73ffffffffffffffffffffffffffffffffffffffff811681146119b557600080fd5b6000806000606084860312156120b957600080fd5b83356120c481612082565b925060208401356120d481612082565b929592945050506040919091013590565b6000602082840312156120f757600080fd5b8135610a7681612082565b6000806040838503121561211557600080fd5b823561212081612082565b946020939093013593505050565b60006020828403121561214057600080fd5b5035919050565b6000806040838503121561215a57600080fd5b82359150602083013561216c81612082565b809150509250929050565b6000806000806080858703121561218d57600080fd5b5050823594602084013594506040840135936060013592509050565b6000806000606084860312156121be57600080fd5b83356121c981612082565b95602085013595506040909401359392505050565b6000602082840312156121f057600080fd5b81518015158114610a7657600080fd5b7f4e487b7100000000000000000000000000000000000000000000000000000000600052601160045260246000fd5b8181038181111561089e5761089e612200565b8082018082111561089e5761089e612200565b808202811582820484141761089e5761089e612200565b7f4e487b7100000000000000000000000000000000000000000000000000000000600052601260045260246000fd5b6000826122d1577f4e487b7100000000000000000000000000000000000000000000000000000000600052601260045260246000fd5b500490565b60007fffffffffffffffffffffffffffffffffffffffffffffffffffffffffffffffff820361230757612307612200565b5060010190565b60008161231d5761231d612200565b507fffffffffffffffffffffffffffffffffffffffffffffffffffffffffffffffff019056fea2646970667358221220471e21384b229bb9db25b75f0296f1f9e17bebc35dc8e8890a0bb8381ca755d364736f6c63430008180033",
  "linkReferences": {},
  "deployedLinkReferences": {}
}