{
    "_format": "hh-sol-artifact-1",
    "contractName": "QdayCore",
    "sourceName": "contracts/QdayCore.sol",
    "abi": [
        {
            "inputs": [
                {
                    "internalType": "contract WAbel",
                    "name": "wAbel_",
                    "type": "address"
                },
                {
                    "internalType": "contract VeQday",
                    "name": "veQday_",
                    "type": "address"
                },
                {
                    "internalType": "uint256",
                    "name": "startTime_",
                    "type": "uint256"
                }
            ],
            "stateMutability": "payable",
            "type": "constructor"
        },
        {
            "inputs": [],
            "name": "AccessControlBadConfirmation",
            "type": "error"
        },
        {
            "inputs": [
                {
                    "internalType": "address",
                    "name": "account",
                    "type": "address"
                },
                {
                    "internalType": "bytes32",
                    "name": "neededRole",
                    "type": "bytes32"
                }
            ],
            "name": "AccessControlUnauthorizedAccount",
            "type": "error"
        },
        {
            "inputs": [
                {
                    "internalType": "address",
                    "name": "account",
                    "type": "address"
                },
                {
                    "internalType": "uint256",
                    "name": "balance",
                    "type": "uint256"
                },
                {
                    "internalType": "uint256",
                    "name": "needed",
                    "type": "uint256"
                }
            ],
            "name": "InsufficientBalance",
            "type": "error"
        },
        {
            "inputs": [
                {
                    "internalType": "uint256",
                    "name": "start",
                    "type": "uint256"
                },
                {
                    "internalType": "uint256",
                    "name": "stakeDay",
                    "type": "uint256"
                },
                {
                    "internalType": "uint256",
                    "name": "current",
                    "type": "uint256"
                }
            ],
            "name": "InvalidStakeTime",
            "type": "error"
        },
        {
            "inputs": [
                {
                    "internalType": "uint256",
                    "name": "start",
                    "type": "uint256"
                },
                {
                    "internalType": "uint256",
                    "name": "stakeDay",
                    "type": "uint256"
                },
                {
                    "internalType": "uint256",
                    "name": "current",
                    "type": "uint256"
                }
            ],
            "name": "InvalidUnstakeTime",
            "type": "error"
        },
        {
            "inputs": [
                {
                    "internalType": "uint256",
                    "name": "start",
                    "type": "uint256"
                },
                {
                    "internalType": "uint256",
                    "name": "stakeDay",
                    "type": "uint256"
                },
                {
                    "internalType": "uint256",
                    "name": "current",
                    "type": "uint256"
                }
            ],
            "name": "InvalidWithdrawTime",
            "type": "error"
        },
        {
            "anonymous": false,
            "inputs": [
                {
                    "indexed": true,
                    "internalType": "address",
                    "name": "to",
                    "type": "address"
                },
                {
                    "indexed": false,
                    "internalType": "uint256",
                    "name": "amount",
                    "type": "uint256"
                }
            ],
            "name": "Airdrop",
            "type": "event"
        },
        {
            "anonymous": false,
            "inputs": [
                {
                    "indexed": true,
                    "internalType": "address",
                    "name": "owner",
                    "type": "address"
                },
                {
                    "indexed": false,
                    "internalType": "uint256",
                    "name": "amount",
                    "type": "uint256"
                }
            ],
            "name": "BurnWAbel",
            "type": "event"
        },
        {
            "anonymous": false,
            "inputs": [
                {
                    "indexed": true,
                    "internalType": "address",
                    "name": "to",
                    "type": "address"
                },
                {
                    "indexed": false,
                    "internalType": "uint256",
                    "name": "amount",
                    "type": "uint256"
                },
                {
                    "indexed": false,
                    "internalType": "uint256",
                    "name": "lockDay",
                    "type": "uint256"
                }
            ],
            "name": "MintWAbel",
            "type": "event"
        },
        {
            "anonymous": false,
            "inputs": [
                {
                    "indexed": true,
                    "internalType": "bytes32",
                    "name": "role",
                    "type": "bytes32"
                },
                {
                    "indexed": true,
                    "internalType": "bytes32",
                    "name": "previousAdminRole",
                    "type": "bytes32"
                },
                {
                    "indexed": true,
                    "internalType": "bytes32",
                    "name": "newAdminRole",
                    "type": "bytes32"
                }
            ],
            "name": "RoleAdminChanged",
            "type": "event"
        },
        {
            "anonymous": false,
            "inputs": [
                {
                    "indexed": true,
                    "internalType": "bytes32",
                    "name": "role",
                    "type": "bytes32"
                },
                {
                    "indexed": true,
                    "internalType": "address",
                    "name": "account",
                    "type": "address"
                },
                {
                    "indexed": true,
                    "internalType": "address",
                    "name": "sender",
                    "type": "address"
                }
            ],
            "name": "RoleGranted",
            "type": "event"
        },
        {
            "anonymous": false,
            "inputs": [
                {
                    "indexed": true,
                    "internalType": "bytes32",
                    "name": "role",
                    "type": "bytes32"
                },
                {
                    "indexed": true,
                    "internalType": "address",
                    "name": "account",
                    "type": "address"
                },
                {
                    "indexed": true,
                    "internalType": "address",
                    "name": "sender",
                    "type": "address"
                }
            ],
            "name": "RoleRevoked",
            "type": "event"
        },
        {
            "anonymous": false,
            "inputs": [
                {
                    "indexed": false,
                    "internalType": "address",
                    "name": "account",
                    "type": "address"
                },
                {
                    "indexed": false,
                    "internalType": "uint256",
                    "name": "amount",
                    "type": "uint256"
                },
                {
                    "indexed": false,
                    "internalType": "uint256",
                    "name": "day",
                    "type": "uint256"
                }
            ],
            "name": "Stake",
            "type": "event"
        },
        {
            "anonymous": false,
            "inputs": [
                {
                    "indexed": false,
                    "internalType": "address",
                    "name": "account",
                    "type": "address"
                },
                {
                    "indexed": false,
                    "internalType": "uint256",
                    "name": "amount",
                    "type": "uint256"
                },
                {
                    "indexed": false,
                    "internalType": "uint256",
                    "name": "day",
                    "type": "uint256"
                }
            ],
            "name": "Unstake",
            "type": "event"
        },
        {
            "anonymous": false,
            "inputs": [
                {
                    "indexed": false,
                    "internalType": "address",
                    "name": "account",
                    "type": "address"
                },
                {
                    "indexed": false,
                    "internalType": "uint256",
                    "name": "amount",
                    "type": "uint256"
                },
                {
                    "indexed": false,
                    "internalType": "uint256",
                    "name": "day",
                    "type": "uint256"
                }
            ],
            "name": "WithdrawReward",
            "type": "event"
        },
        {
            "inputs": [],
            "name": "ADMIN_ROLE",
            "outputs": [
                {
                    "internalType": "bytes32",
                    "name": "",
                    "type": "bytes32"
                }
            ],
            "stateMutability": "view",
            "type": "function"
        },
        {
            "inputs": [],
            "name": "BURNER_ROLE",
            "outputs": [
                {
                    "internalType": "bytes32",
                    "name": "",
                    "type": "bytes32"
                }
            ],
            "stateMutability": "view",
            "type": "function"
        },
        {
            "inputs": [],
            "name": "DAY_SECONDS",
            "outputs": [
                {
                    "internalType": "uint256",
                    "name": "",
                    "type": "uint256"
                }
            ],
            "stateMutability": "view",
            "type": "function"
        },
        {
            "inputs": [],
            "name": "DEFAULT_ADMIN_ROLE",
            "outputs": [
                {
                    "internalType": "bytes32",
                    "name": "",
                    "type": "bytes32"
                }
            ],
            "stateMutability": "view",
            "type": "function"
        },
        {
            "inputs": [],
            "name": "GAS_FEES",
            "outputs": [
                {
                    "internalType": "uint256",
                    "name": "",
                    "type": "uint256"
                }
            ],
            "stateMutability": "view",
            "type": "function"
        },
        {
            "inputs": [],
            "name": "MINTER_ROLE",
            "outputs": [
                {
                    "internalType": "bytes32",
                    "name": "",
                    "type": "bytes32"
                }
            ],
            "stateMutability": "view",
            "type": "function"
        },
        {
            "inputs": [],
            "name": "TOTAL_QDAY",
            "outputs": [
                {
                    "internalType": "uint256",
                    "name": "",
                    "type": "uint256"
                }
            ],
            "stateMutability": "view",
            "type": "function"
        },
        {
            "inputs": [],
            "name": "airdropDay",
            "outputs": [
                {
                    "internalType": "uint256",
                    "name": "",
                    "type": "uint256"
                }
            ],
            "stateMutability": "view",
            "type": "function"
        },
        {
            "inputs": [
                {
                    "internalType": "uint256",
                    "name": "amount",
                    "type": "uint256"
                }
            ],
            "name": "burnWAbel",
            "outputs": [],
            "stateMutability": "nonpayable",
            "type": "function"
        },
        {
            "inputs": [
                {
                    "internalType": "address",
                    "name": "account",
                    "type": "address"
                }
            ],
            "name": "claimedReward",
            "outputs": [
                {
                    "internalType": "uint256",
                    "name": "",
                    "type": "uint256"
                }
            ],
            "stateMutability": "view",
            "type": "function"
        },
        {
            "inputs": [
                {
                    "internalType": "bytes32",
                    "name": "role",
                    "type": "bytes32"
                }
            ],
            "name": "getRoleAdmin",
            "outputs": [
                {
                    "internalType": "bytes32",
                    "name": "",
                    "type": "bytes32"
                }
            ],
            "stateMutability": "view",
            "type": "function"
        },
        {
            "inputs": [
                {
                    "internalType": "bytes32",
                    "name": "role",
                    "type": "bytes32"
                },
                {
                    "internalType": "address",
                    "name": "account",
                    "type": "address"
                }
            ],
            "name": "grantRole",
            "outputs": [],
            "stateMutability": "nonpayable",
            "type": "function"
        },
        {
            "inputs": [
                {
                    "internalType": "bytes32",
                    "name": "role",
                    "type": "bytes32"
                },
                {
                    "internalType": "address",
                    "name": "account",
                    "type": "address"
                }
            ],
            "name": "hasRole",
            "outputs": [
                {
                    "internalType": "bool",
                    "name": "",
                    "type": "bool"
                }
            ],
            "stateMutability": "view",
            "type": "function"
        },
        {
            "inputs": [],
            "name": "lockDay",
            "outputs": [
                {
                    "internalType": "uint256",
                    "name": "",
                    "type": "uint256"
                }
            ],
            "stateMutability": "view",
            "type": "function"
        },
        {
            "inputs": [
                {
                    "internalType": "address",
                    "name": "to_",
                    "type": "address"
                },
                {
                    "internalType": "uint256",
                    "name": "amount_",
                    "type": "uint256"
                },
                {
                    "internalType": "uint256",
                    "name": "lockDay_",
                    "type": "uint256"
                }
            ],
            "name": "mintWAbel",
            "outputs": [],
            "stateMutability": "nonpayable",
            "type": "function"
        },
        {
            "inputs": [],
            "name": "overQday",
            "outputs": [
                {
                    "internalType": "uint256",
                    "name": "",
                    "type": "uint256"
                }
            ],
            "stateMutability": "view",
            "type": "function"
        },
        {
            "inputs": [
                {
                    "internalType": "bytes32",
                    "name": "role",
                    "type": "bytes32"
                },
                {
                    "internalType": "address",
                    "name": "callerConfirmation",
                    "type": "address"
                }
            ],
            "name": "renounceRole",
            "outputs": [],
            "stateMutability": "nonpayable",
            "type": "function"
        },
        {
            "inputs": [
                {
                    "internalType": "bytes32",
                    "name": "role",
                    "type": "bytes32"
                },
                {
                    "internalType": "address",
                    "name": "account",
                    "type": "address"
                }
            ],
            "name": "revokeRole",
            "outputs": [],
            "stateMutability": "nonpayable",
            "type": "function"
        },
        {
            "inputs": [
                {
                    "internalType": "address",
                    "name": "account",
                    "type": "address"
                },
                {
                    "internalType": "uint256",
                    "name": "day",
                    "type": "uint256"
                }
            ],
            "name": "reward",
            "outputs": [
                {
                    "internalType": "uint256",
                    "name": "",
                    "type": "uint256"
                }
            ],
            "stateMutability": "view",
            "type": "function"
        },
        {
            "inputs": [
                {
                    "internalType": "address",
                    "name": "account",
                    "type": "address"
                }
            ],
            "name": "reward",
            "outputs": [
                {
                    "internalType": "uint256",
                    "name": "",
                    "type": "uint256"
                }
            ],
            "stateMutability": "view",
            "type": "function"
        },
        {
            "inputs": [
                {
                    "internalType": "uint256",
                    "name": "amount",
                    "type": "uint256"
                }
            ],
            "name": "stake",
            "outputs": [],
            "stateMutability": "nonpayable",
            "type": "function"
        },
        {
            "inputs": [],
            "name": "stakeDay",
            "outputs": [
                {
                    "internalType": "uint256",
                    "name": "",
                    "type": "uint256"
                }
            ],
            "stateMutability": "view",
            "type": "function"
        },
        {
            "inputs": [],
            "name": "stakeWithQday",
            "outputs": [],
            "stateMutability": "payable",
            "type": "function"
        },
        {
            "inputs": [],
            "name": "startTime",
            "outputs": [
                {
                    "internalType": "uint256",
                    "name": "",
                    "type": "uint256"
                }
            ],
            "stateMutability": "view",
            "type": "function"
        },
        {
            "inputs": [
                {
                    "internalType": "bytes4",
                    "name": "interfaceId",
                    "type": "bytes4"
                }
            ],
            "name": "supportsInterface",
            "outputs": [
                {
                    "internalType": "bool",
                    "name": "",
                    "type": "bool"
                }
            ],
            "stateMutability": "view",
            "type": "function"
        },
        {
            "inputs": [],
            "name": "totalReward",
            "outputs": [
                {
                    "internalType": "uint256",
                    "name": "",
                    "type": "uint256"
                }
            ],
            "stateMutability": "view",
            "type": "function"
        },
        {
            "inputs": [
                {
                    "internalType": "uint256",
                    "name": "day",
                    "type": "uint256"
                }
            ],
            "name": "totalStake",
            "outputs": [
                {
                    "internalType": "uint256",
                    "name": "",
                    "type": "uint256"
                }
            ],
            "stateMutability": "view",
            "type": "function"
        },
        {
            "inputs": [],
            "name": "totalStake",
            "outputs": [
                {
                    "internalType": "uint256",
                    "name": "",
                    "type": "uint256"
                }
            ],
            "stateMutability": "view",
            "type": "function"
        },
        {
            "inputs": [
                {
                    "internalType": "address",
                    "name": "account",
                    "type": "address"
                }
            ],
            "name": "unlockedReward",
            "outputs": [
                {
                    "internalType": "uint256",
                    "name": "",
                    "type": "uint256"
                }
            ],
            "stateMutability": "view",
            "type": "function"
        },
        {
            "inputs": [
                {
                    "internalType": "uint256",
                    "name": "amount",
                    "type": "uint256"
                }
            ],
            "name": "unstake",
            "outputs": [],
            "stateMutability": "nonpayable",
            "type": "function"
        },
        {
            "inputs": [
                {
                    "internalType": "uint256",
                    "name": "amount",
                    "type": "uint256"
                }
            ],
            "name": "unstakeWithQday",
            "outputs": [],
            "stateMutability": "nonpayable",
            "type": "function"
        },
        {
            "inputs": [
                {
                    "internalType": "uint256",
                    "name": "startTime_",
                    "type": "uint256"
                },
                {
                    "internalType": "uint256",
                    "name": "airdropDay_",
                    "type": "uint256"
                },
                {
                    "internalType": "uint256",
                    "name": "stakeDay_",
                    "type": "uint256"
                },
                {
                    "internalType": "uint256",
                    "name": "lockDay_",
                    "type": "uint256"
                }
            ],
            "name": "updateParams",
            "outputs": [],
            "stateMutability": "nonpayable",
            "type": "function"
        },
        {
            "inputs": [
                {
                    "internalType": "address",
                    "name": "account",
                    "type": "address"
                },
                {
                    "internalType": "uint256",
                    "name": "day",
                    "type": "uint256"
                }
            ],
            "name": "userStake",
            "outputs": [
                {
                    "internalType": "uint256",
                    "name": "",
                    "type": "uint256"
                }
            ],
            "stateMutability": "view",
            "type": "function"
        },
        {
            "inputs": [
                {
                    "internalType": "address",
                    "name": "account",
                    "type": "address"
                }
            ],
            "name": "userStake",
            "outputs": [
                {
                    "internalType": "uint256",
                    "name": "",
                    "type": "uint256"
                }
            ],
            "stateMutability": "view",
            "type": "function"
        },
        {
            "inputs": [],
            "name": "veQday",
            "outputs": [
                {
                    "internalType": "contract VeQday",
                    "name": "",
                    "type": "address"
                }
            ],
            "stateMutability": "view",
            "type": "function"
        },
        {
            "inputs": [],
            "name": "wAbel",
            "outputs": [
                {
                    "internalType": "contract WAbel",
                    "name": "",
                    "type": "address"
                }
            ],
            "stateMutability": "view",
            "type": "function"
        },
        {
            "inputs": [
                {
                    "internalType": "address payable",
                    "name": "to",
                    "type": "address"
                },
                {
                    "internalType": "uint256",
                    "name": "value",
                    "type": "uint256"
                }
            ],
            "name": "withdrawQday",
            "outputs": [],
            "stateMutability": "nonpayable",
            "type": "function"
        },
        {
            "inputs": [
                {
                    "internalType": "address payable",
                    "name": "account",
                    "type": "address"
                }
            ],
            "name": "withdrawReward",
            "outputs": [],
            "stateMutability": "nonpayable",
            "type": "function"
        }
    ],
    "bytecode": "0x60806040526040516200236e3803806200236e833981016040819052620000269162000288565b620000416000805160206200234e8339815191523362000175565b506200006c6000805160206200232e8339815191526000805160206200234e83398151915262000224565b620000a77f3c11d16cbaffd01df69ce1c404f6340ee057498f5f00246190ea54220576a8486000805160206200234e83398151915262000224565b620000c26000805160206200232e8339815191523362000175565b50620000ef7f3c11d16cbaffd01df69ce1c404f6340ee057498f5f00246190ea54220576a8483362000175565b50600180546001600160a01b039485166001600160a01b031991821617825560028054949095169316929092179092556003919091556a5d21dc214825fd84c00000600455600760058190556107d060065581905560008052600a6020527f13da86008ba1c6922daee3e07db95305ef49ebced9f5467a0b8613fcc6b343e355620002d0565b6000828152602081815260408083206001600160a01b038516845290915281205460ff166200021a576000838152602081815260408083206001600160a01b03861684529091529020805460ff19166001179055620001d13390565b6001600160a01b0316826001600160a01b0316847f2f8788117e7eff1d82e926ec794901d17c78024a50270940304540a733656f0d60405160405180910390a45060016200021e565b5060005b92915050565b600082815260208190526040808220600101805490849055905190918391839186917fbd79b86ffe0ab8e8776151514217cd7cacd52c909f66475c3af44e129f0b00ff9190a4505050565b6001600160a01b03811681146200028557600080fd5b50565b6000806000606084860312156200029e57600080fd5b8351620002ab816200026f565b6020850151909350620002be816200026f565b80925050604084015190509250925092565b61204e80620002e06000396000f3fe6080604052600436106102855760003560e01c8063750142e611610153578063ab91bc8f116100cb578063c39855841161007f578063d547741f11610064578063d547741f1461077f578063df3b61301461079f578063f6fcca26146107b557600080fd5b8063c398558414610735578063d53913931461074b57600080fd5b8063b86e321c116100b0578063b86e321c146106df578063b8b2fcf5146106ff578063b9ffbe671461071557600080fd5b8063ab91bc8f146106b7578063b0557bf1146106bf57600080fd5b806391d1485411610122578063a17d02b211610107578063a17d02b214610662578063a217fddf14610682578063a694fc3a1461069757600080fd5b806391d14854146105f15780639ff18bdd1461064257600080fd5b8063750142e61461057d57806375b238fc1461059257806378e97925146105c65780638b0e9f3f146105dc57600080fd5b806337b3b15c1161020157806358e6d53c116101b55780636353586b1161019a5780636353586b1461051d57806368e5585d1461053d5780636ed7d8bb1461055d57600080fd5b806358e6d53c146104e75780635ab633cd146104fd57600080fd5b8063465c8685116101e6578063465c86851461048457806349d4a52a146104a457806351ac2845146104d157600080fd5b806337b3b15c146104485780633937ea4f1461046457600080fd5b8063248a9ca3116102585780632e17de781161023d5780632e17de78146103e65780632f2ff15d1461040857806336568abe1461042857600080fd5b8063248a9ca314610382578063282c51f3146103b257600080fd5b806301ffc9a71461028a57806318a0cf45146102bf5780631e6f3d8a1461031157806321670f2214610362575b600080fd5b34801561029657600080fd5b506102aa6102a5366004611d56565b6107d4565b60405190151581526020015b60405180910390f35b3480156102cb57600080fd5b506001546102ec9073ffffffffffffffffffffffffffffffffffffffff1681565b60405173ffffffffffffffffffffffffffffffffffffffff90911681526020016102b6565b34801561031d57600080fd5b5061035461032c366004611dba565b73ffffffffffffffffffffffffffffffffffffffff1660009081526009602052604090205490565b6040519081526020016102b6565b34801561036e57600080fd5b5061035461037d366004611dd7565b61086d565b34801561038e57600080fd5b5061035461039d366004611e03565b60009081526020819052604090206001015490565b3480156103be57600080fd5b506103547f3c11d16cbaffd01df69ce1c404f6340ee057498f5f00246190ea54220576a84881565b3480156103f257600080fd5b50610406610401366004611e03565b610880565b005b34801561041457600080fd5b50610406610423366004611e1c565b610929565b34801561043457600080fd5b50610406610443366004611e1c565b610954565b34801561045457600080fd5b5061035467016345785d8a000081565b34801561047057600080fd5b5061035461047f366004611dd7565b6109b2565b34801561049057600080fd5b5061035461049f366004611dba565b6109ee565b3480156104b057600080fd5b506002546102ec9073ffffffffffffffffffffffffffffffffffffffff1681565b3480156104dd57600080fd5b5061035460075481565b3480156104f357600080fd5b506103546105a081565b34801561050957600080fd5b50610354610518366004611e03565b610a02565b34801561052957600080fd5b50610354610538366004611dba565b610a1d565b34801561054957600080fd5b50610354610558366004611dba565b610a43565b34801561056957600080fd5b50610406610578366004611dd7565b610a98565b34801561058957600080fd5b50610354610b05565b34801561059e57600080fd5b506103547fa49807205ce4d355092ef5a8a18f56e8913cf4a201fbe287825b095693c2177581565b3480156105d257600080fd5b5061035460035481565b3480156105e857600080fd5b50610354610b25565b3480156105fd57600080fd5b506102aa61060c366004611e1c565b60009182526020828152604080842073ffffffffffffffffffffffffffffffffffffffff93909316845291905290205460ff1690565b34801561064e57600080fd5b5061040661065d366004611e03565b610b62565b34801561066e57600080fd5b5061040661067d366004611e03565b610c24565b34801561068e57600080fd5b50610354600081565b3480156106a357600080fd5b506104066106b2366004611e03565b610cbb565b610406610d7d565b3480156106cb57600080fd5b506104066106da366004611e4c565b610e24565b3480156106eb57600080fd5b506104066106fa366004611dba565b610e81565b34801561070b57600080fd5b5061035460065481565b34801561072157600080fd5b50610406610730366004611e7e565b610f7e565b34801561074157600080fd5b5061035460055481565b34801561075757600080fd5b506103547f9f2df0fed2c77648de5860a4cc508cd0818c85b8b8a1ab4ceeef8d981c8956a681565b34801561078b57600080fd5b5061040661079a366004611e1c565b61120a565b3480156107ab57600080fd5b5061035460045481565b3480156107c157600080fd5b506103546a5d21dc214825fd84c0000081565b60007fffffffff0000000000000000000000000000000000000000000000000000000082167f7965db0b00000000000000000000000000000000000000000000000000000000148061086757507f01ffc9a7000000000000000000000000000000000000000000000000000000007fffffffff000000000000000000000000000000000000000000000000000000008316145b92915050565b6000610879838361122f565b9392505050565b61088a33826113cc565b6002546040517fa9059cbb0000000000000000000000000000000000000000000000000000000081523360048201526024810183905273ffffffffffffffffffffffffffffffffffffffff9091169063a9059cbb906044016020604051808303816000875af1158015610901573d6000803e3d6000fd5b505050506040513d601f19601f820116820180604052508101906109259190611eb3565b5050565b60008281526020819052604090206001015461094481611617565b61094e8383611624565b50505050565b73ffffffffffffffffffffffffffffffffffffffff811633146109a3576040517f6697b23200000000000000000000000000000000000000000000000000000000815260040160405180910390fd5b6109ad8282611720565b505050565b60006109be83836117db565b73ffffffffffffffffffffffffffffffffffffffff93909316600090815260019093016020525050604090205490565b6000610867826109fd42611840565b61185e565b6000600654821115610a145760065491505b61086782611890565b6000600354421015610a3157506000919050565b61086782610a3e42611840565b61122f565b6000600354421015610a5757506000919050565b610a6982610a6442611840565b6117db565b73ffffffffffffffffffffffffffffffffffffffff909216600090815260019290920160205250604090205490565b7fa49807205ce4d355092ef5a8a18f56e8913cf4a201fbe287825b095693c21775610ac281611617565b60405173ffffffffffffffffffffffffffffffffffffffff84169083156108fc029084906000818181858888f1935050505015801561094e573d6000803e3d6000fd5b60006004546a5d21dc214825fd84c00000610b209190611f04565b905090565b6000600354421015610b375750600090565b6000610b4242611840565b9050600654811115610b5357506006545b610b5c81611890565b91505090565b6001546040517f9dc29fac0000000000000000000000000000000000000000000000000000000081523360048201526024810183905273ffffffffffffffffffffffffffffffffffffffff90911690639dc29fac90604401600060405180830381600087803b158015610bd457600080fd5b505af1158015610be8573d6000803e3d6000fd5b50506040518381523392507f537f2a665b8a33c6ca7eed303f6028a727fe7afc995f36b326c612190aa8aa1a915060200160405180910390a250565b610c2e33826113cc565b6002546040517f205c28780000000000000000000000000000000000000000000000000000000081523360048201526024810183905273ffffffffffffffffffffffffffffffffffffffff9091169063205c287890604401600060405180830381600087803b158015610ca057600080fd5b505af1158015610cb4573d6000803e3d6000fd5b5050505050565b6000610cc642611840565b9050610cd1816118d6565b610cdc338383611926565b6002546040517f23b872dd0000000000000000000000000000000000000000000000000000000081523360048201523060248201526044810184905273ffffffffffffffffffffffffffffffffffffffff909116906323b872dd906064016020604051808303816000875af1158015610d59573d6000803e3d6000fd5b505050506040513d601f19601f820116820180604052508101906109ad9190611eb3565b6000610d8842611840565b9050610d93816118d6565b610d9e333483611926565b600260009054906101000a900473ffffffffffffffffffffffffffffffffffffffff1673ffffffffffffffffffffffffffffffffffffffff1663d0e30db0346040518263ffffffff1660e01b81526004016000604051808303818588803b158015610e0857600080fd5b505af1158015610e1c573d6000803e3d6000fd5b505050505050565b7fa49807205ce4d355092ef5a8a18f56e8913cf4a201fbe287825b095693c21775610e4e81611617565b8415610e5a5760038590555b8315610e665760058490555b8215610e725760068390555b8115610cb45750600755505050565b6000610e8c42611840565b90506000610e9a838361185e565b73ffffffffffffffffffffffffffffffffffffffff84166000908152600860205260408120849055600480549293508392909190610ed9908490611f04565b909155505060405173ffffffffffffffffffffffffffffffffffffffff84169082156108fc029083906000818181858888f19350505050158015610f21573d6000803e3d6000fd5b506040805173ffffffffffffffffffffffffffffffffffffffff85168152602081018390529081018390527f48f1e4b8fb0469595617480e6784e40ab6b8c49209761b8e09305bf7b73e53de9060600160405180910390a1505050565b7f9f2df0fed2c77648de5860a4cc508cd0818c85b8b8a1ab4ceeef8d981c8956a6610fa881611617565b67016345785d8a00008310158015610fd5575073ffffffffffffffffffffffffffffffffffffffff841631155b1561103757610fec67016345785d8a000084611f04565b60405190935073ffffffffffffffffffffffffffffffffffffffff85169060009067016345785d8a00009082818181858883f19350505050158015611035573d6000803e3d6000fd5b505b6110428484846119dd565b156111265760015460055473ffffffffffffffffffffffffffffffffffffffff9091169063e2ab691d90869086906105a09061107f908890611f17565b6110899190611f2a565b6003546110969190611f17565b6040517fffffffff0000000000000000000000000000000000000000000000000000000060e086901b16815273ffffffffffffffffffffffffffffffffffffffff909316600484015260248301919091526044820152606401600060405180830381600087803b15801561110957600080fd5b505af115801561111d573d6000803e3d6000fd5b505050506111b3565b6001546040517f40c10f1900000000000000000000000000000000000000000000000000000000815273ffffffffffffffffffffffffffffffffffffffff868116600483015260248201869052909116906340c10f1990604401600060405180830381600087803b15801561119a57600080fd5b505af11580156111ae573d6000803e3d6000fd5b505050505b604080518481526020810184905273ffffffffffffffffffffffffffffffffffffffff8616917f6631b5b7aa2f756a96856e36a5103bea74b5fec3820fa3888b11d1be7195db80910160405180910390a250505050565b60008281526020819052604090206001015461122581611617565b61094e8383611720565b60065460009081908311156112445760065492505b73ffffffffffffffffffffffffffffffffffffffff84166000908152600860205260408120549061127586836117db565b73ffffffffffffffffffffffffffffffffffffffff871660009081526002820160209081526040808320546001850190925282205492935091906112b885611890565b90505b878510156113bf57846006546112d19190611f04565b81600454856112e09190611f2a565b6112ea9190611f70565b6112f49190611f70565b6112fe9087611f17565b95508461130a81611fab565b6000818152600a6020908152604080832073ffffffffffffffffffffffffffffffffffffffff8f16845260030190915281205491975003905061134f57819250611395565b6000858152600a6020908152604080832073ffffffffffffffffffffffffffffffffffffffff8d1684526002810183528184205460019091019092529091205490935091505b6000858152600a6020526040902054156113ba57506000848152600a60205260409020545b6112bb565b5093979650505050505050565b600354421015611422576003546006546040517f41a56d08000000000000000000000000000000000000000000000000000000008152600481019290925260248201524260448201526064015b60405180910390fd5b600061142d42611840565b905060065481111561143e57506006545b600061144a8483611b43565b73ffffffffffffffffffffffffffffffffffffffff851660009081526001820160205260409020549091508311156114e75773ffffffffffffffffffffffffffffffffffffffff84166000818152600183016020526040908190205490517fdb42144d0000000000000000000000000000000000000000000000000000000081526004810192909252602482015260448101849052606401611419565b828160000160008282546114fb9190611f04565b909155505073ffffffffffffffffffffffffffffffffffffffff8416600090815260018201602052604081208054859290611537908490611f04565b90915550506006548210156115b95773ffffffffffffffffffffffffffffffffffffffff84166000908152600182016020908152604080832054600285019092529091205411156115b95773ffffffffffffffffffffffffffffffffffffffff8416600090815260018201602090815260408083205460028501909252909120555b6040805173ffffffffffffffffffffffffffffffffffffffff86168152602081018590529081018390527ff960dbf9e5d0682f7a298ed974e33a28b4464914b7a2bfac12ae419a9afeb280906060015b60405180910390a150505050565b6116218133611cd0565b50565b60008281526020818152604080832073ffffffffffffffffffffffffffffffffffffffff8516845290915281205460ff166117185760008381526020818152604080832073ffffffffffffffffffffffffffffffffffffffff86168452909152902080547fffffffffffffffffffffffffffffffffffffffffffffffffffffffffffffff001660011790556116b63390565b73ffffffffffffffffffffffffffffffffffffffff168273ffffffffffffffffffffffffffffffffffffffff16847f2f8788117e7eff1d82e926ec794901d17c78024a50270940304540a733656f0d60405160405180910390a4506001610867565b506000610867565b60008281526020818152604080832073ffffffffffffffffffffffffffffffffffffffff8516845290915281205460ff16156117185760008381526020818152604080832073ffffffffffffffffffffffffffffffffffffffff8616808552925280832080547fffffffffffffffffffffffffffffffffffffffffffffffffffffffffffffff0016905551339286917ff6391f5c32d9c69d2a47ea670b442974b53935d1edc7fd64eb21e047a839171b9190a4506001610867565b6006546000905b80831015806117ef575080155b61182b576000908152600a6020908152604080832073ffffffffffffffffffffffffffffffffffffffff871684526003019091529020546117e2565b6000908152600a602052604090209392505050565b60006105a060035483038161185757611857611f41565b0492915050565b6000600354421080611871575060075482105b1561187e57506000610867565b6108798360075484610a3e9190611f04565b60005b6000828152600a60205260409020541515806118ad575081155b6118c357816118bb81611fe3565b925050611893565b506000908152600a602052604090205490565b6006548110611621576003546006546040517fb943a41900000000000000000000000000000000000000000000000000000000815260048101929092526024820152426044820152606401611419565b60006119328483611b43565b9050828160000160008282546119489190611f17565b909155505073ffffffffffffffffffffffffffffffffffffffff8416600090815260018201602052604081208054859290611984908490611f17565b90915550506040805173ffffffffffffffffffffffffffffffffffffffff86168152602081018590529081018390527f5af417134f72a9d41143ace85b0a26dce6f550f894f2cbc1eeee8810603d91b690606001611609565b6000806119e942611840565b905060055481106119fe576000915050610879565b600083600103611a105750600a611a24565b83600203611a2057506014611a24565b50601e5b60006064611a328388611f2a565b611a3c9190611f70565b90508673ffffffffffffffffffffffffffffffffffffffff167f8c32c568416fcf97be35ce5b27844cfddcd63a67a1a602c3595ba5dac38f303a82604051611a8691815260200190565b60405180910390a28060046000828254611aa09190611f04565b9091555050600254604080517fd0e30db0000000000000000000000000000000000000000000000000000000008152905173ffffffffffffffffffffffffffffffffffffffff9092169163d0e30db0918491600480830192600092919082900301818588803b158015611b1257600080fd5b505af1158015611b26573d6000803e3d6000fd5b5050505050611b36878285611926565b5060019695505050505050565b6006546000908152600a6020908152604080832073ffffffffffffffffffffffffffffffffffffffff861684526003019091528120548083118015611bbb57506006546000908152600a6020908152604080832073ffffffffffffffffffffffffffffffffffffffff88168452600201909152902054155b15611cbb576000818152600a6020818152604080842073ffffffffffffffffffffffffffffffffffffffff8916808652600191820184528286205489875294845282862090865290810183528185208490556002810183528185208490556003019091529091208290556006548403611c6c576006546000908152600a6020908152604080832073ffffffffffffffffffffffffffffffffffffffff89168452600201909152902060019055611ca5565b6006546000908152600a6020908152604080832073ffffffffffffffffffffffffffffffffffffffff8916845260030190915290208490555b5050506000818152600a60205260409020610867565b6000908152600a602052604090209050610867565b60008281526020818152604080832073ffffffffffffffffffffffffffffffffffffffff8516845290915290205460ff16610925576040517fe2517d3f00000000000000000000000000000000000000000000000000000000815273ffffffffffffffffffffffffffffffffffffffff8216600482015260248101839052604401611419565b600060208284031215611d6857600080fd5b81357fffffffff000000000000000000000000000000000000000000000000000000008116811461087957600080fd5b73ffffffffffffffffffffffffffffffffffffffff8116811461162157600080fd5b600060208284031215611dcc57600080fd5b813561087981611d98565b60008060408385031215611dea57600080fd5b8235611df581611d98565b946020939093013593505050565b600060208284031215611e1557600080fd5b5035919050565b60008060408385031215611e2f57600080fd5b823591506020830135611e4181611d98565b809150509250929050565b60008060008060808587031215611e6257600080fd5b5050823594602084013594506040840135936060013592509050565b600080600060608486031215611e9357600080fd5b8335611e9e81611d98565b95602085013595506040909401359392505050565b600060208284031215611ec557600080fd5b8151801515811461087957600080fd5b7f4e487b7100000000000000000000000000000000000000000000000000000000600052601160045260246000fd5b8181038181111561086757610867611ed5565b8082018082111561086757610867611ed5565b808202811582820484141761086757610867611ed5565b7f4e487b7100000000000000000000000000000000000000000000000000000000600052601260045260246000fd5b600082611fa6577f4e487b7100000000000000000000000000000000000000000000000000000000600052601260045260246000fd5b500490565b60007fffffffffffffffffffffffffffffffffffffffffffffffffffffffffffffffff8203611fdc57611fdc611ed5565b5060010190565b600081611ff257611ff2611ed5565b507fffffffffffffffffffffffffffffffffffffffffffffffffffffffffffffffff019056fea2646970667358221220766a564e2939494d68c15109df3d0868c689ab24b0ec059345870dc8568b256e64736f6c634300081800339f2df0fed2c77648de5860a4cc508cd0818c85b8b8a1ab4ceeef8d981c8956a6a49807205ce4d355092ef5a8a18f56e8913cf4a201fbe287825b095693c21775",
    "linkReferences": {},
    "deployedLinkReferences": {}
}