{
    "_format": "hh-sol-artifact-1",
    "contractName": "WAbel",
    "sourceName": "contracts/WAbel.sol",
    "abi": [
        {
            "inputs": [],
            "stateMutability": "nonpayable",
            "type": "constructor"
        },
        {
            "inputs": [],
            "name": "AccessControlBadConfirmation",
            "type": "error"
        },
        {
            "inputs": [
                {
                    "internalType": "address",
                    "name": "account",
                    "type": "address"
                },
                {
                    "internalType": "bytes32",
                    "name": "neededRole",
                    "type": "bytes32"
                }
            ],
            "name": "AccessControlUnauthorizedAccount",
            "type": "error"
        },
        {
            "inputs": [
                {
                    "internalType": "address",
                    "name": "spender",
                    "type": "address"
                },
                {
                    "internalType": "uint256",
                    "name": "allowance",
                    "type": "uint256"
                },
                {
                    "internalType": "uint256",
                    "name": "needed",
                    "type": "uint256"
                }
            ],
            "name": "ERC20InsufficientAllowance",
            "type": "error"
        },
        {
            "inputs": [
                {
                    "internalType": "address",
                    "name": "sender",
                    "type": "address"
                },
                {
                    "internalType": "uint256",
                    "name": "balance",
                    "type": "uint256"
                },
                {
                    "internalType": "uint256",
                    "name": "needed",
                    "type": "uint256"
                }
            ],
            "name": "ERC20InsufficientBalance",
            "type": "error"
        },
        {
            "inputs": [
                {
                    "internalType": "address",
                    "name": "approver",
                    "type": "address"
                }
            ],
            "name": "ERC20InvalidApprover",
            "type": "error"
        },
        {
            "inputs": [
                {
                    "internalType": "address",
                    "name": "receiver",
                    "type": "address"
                }
            ],
            "name": "ERC20InvalidReceiver",
            "type": "error"
        },
        {
            "inputs": [
                {
                    "internalType": "address",
                    "name": "sender",
                    "type": "address"
                }
            ],
            "name": "ERC20InvalidSender",
            "type": "error"
        },
        {
            "inputs": [
                {
                    "internalType": "address",
                    "name": "spender",
                    "type": "address"
                }
            ],
            "name": "ERC20InvalidSpender",
            "type": "error"
        },
        {
            "anonymous": false,
            "inputs": [
                {
                    "indexed": true,
                    "internalType": "address",
                    "name": "owner",
                    "type": "address"
                },
                {
                    "indexed": true,
                    "internalType": "address",
                    "name": "spender",
                    "type": "address"
                },
                {
                    "indexed": false,
                    "internalType": "uint256",
                    "name": "value",
                    "type": "uint256"
                }
            ],
            "name": "Approval",
            "type": "event"
        },
        {
            "anonymous": false,
            "inputs": [
                {
                    "indexed": true,
                    "internalType": "address",
                    "name": "to",
                    "type": "address"
                },
                {
                    "indexed": false,
                    "internalType": "uint256",
                    "name": "amount",
                    "type": "uint256"
                },
                {
                    "indexed": false,
                    "internalType": "uint256",
                    "name": "unlockTime",
                    "type": "uint256"
                }
            ],
            "name": "Lock",
            "type": "event"
        },
        {
            "anonymous": false,
            "inputs": [
                {
                    "indexed": true,
                    "internalType": "bytes32",
                    "name": "role",
                    "type": "bytes32"
                },
                {
                    "indexed": true,
                    "internalType": "bytes32",
                    "name": "previousAdminRole",
                    "type": "bytes32"
                },
                {
                    "indexed": true,
                    "internalType": "bytes32",
                    "name": "newAdminRole",
                    "type": "bytes32"
                }
            ],
            "name": "RoleAdminChanged",
            "type": "event"
        },
        {
            "anonymous": false,
            "inputs": [
                {
                    "indexed": true,
                    "internalType": "bytes32",
                    "name": "role",
                    "type": "bytes32"
                },
                {
                    "indexed": true,
                    "internalType": "address",
                    "name": "account",
                    "type": "address"
                },
                {
                    "indexed": true,
                    "internalType": "address",
                    "name": "sender",
                    "type": "address"
                }
            ],
            "name": "RoleGranted",
            "type": "event"
        },
        {
            "anonymous": false,
            "inputs": [
                {
                    "indexed": true,
                    "internalType": "bytes32",
                    "name": "role",
                    "type": "bytes32"
                },
                {
                    "indexed": true,
                    "internalType": "address",
                    "name": "account",
                    "type": "address"
                },
                {
                    "indexed": true,
                    "internalType": "address",
                    "name": "sender",
                    "type": "address"
                }
            ],
            "name": "RoleRevoked",
            "type": "event"
        },
        {
            "anonymous": false,
            "inputs": [
                {
                    "indexed": true,
                    "internalType": "address",
                    "name": "from",
                    "type": "address"
                },
                {
                    "indexed": true,
                    "internalType": "address",
                    "name": "to",
                    "type": "address"
                },
                {
                    "indexed": false,
                    "internalType": "uint256",
                    "name": "value",
                    "type": "uint256"
                }
            ],
            "name": "Transfer",
            "type": "event"
        },
        {
            "anonymous": false,
            "inputs": [
                {
                    "indexed": true,
                    "internalType": "address",
                    "name": "to",
                    "type": "address"
                },
                {
                    "indexed": false,
                    "internalType": "uint256",
                    "name": "amount",
                    "type": "uint256"
                }
            ],
            "name": "Unlock",
            "type": "event"
        },
        {
            "inputs": [],
            "name": "ADMIN_ROLE",
            "outputs": [
                {
                    "internalType": "bytes32",
                    "name": "",
                    "type": "bytes32"
                }
            ],
            "stateMutability": "view",
            "type": "function"
        },
        {
            "inputs": [],
            "name": "BURNER_ROLE",
            "outputs": [
                {
                    "internalType": "bytes32",
                    "name": "",
                    "type": "bytes32"
                }
            ],
            "stateMutability": "view",
            "type": "function"
        },
        {
            "inputs": [],
            "name": "DEFAULT_ADMIN_ROLE",
            "outputs": [
                {
                    "internalType": "bytes32",
                    "name": "",
                    "type": "bytes32"
                }
            ],
            "stateMutability": "view",
            "type": "function"
        },
        {
            "inputs": [],
            "name": "MINTER_ROLE",
            "outputs": [
                {
                    "internalType": "bytes32",
                    "name": "",
                    "type": "bytes32"
                }
            ],
            "stateMutability": "view",
            "type": "function"
        },
        {
            "inputs": [
                {
                    "internalType": "address",
                    "name": "owner",
                    "type": "address"
                },
                {
                    "internalType": "address",
                    "name": "spender",
                    "type": "address"
                }
            ],
            "name": "allowance",
            "outputs": [
                {
                    "internalType": "uint256",
                    "name": "",
                    "type": "uint256"
                }
            ],
            "stateMutability": "view",
            "type": "function"
        },
        {
            "inputs": [
                {
                    "internalType": "address",
                    "name": "spender",
                    "type": "address"
                },
                {
                    "internalType": "uint256",
                    "name": "value",
                    "type": "uint256"
                }
            ],
            "name": "approve",
            "outputs": [
                {
                    "internalType": "bool",
                    "name": "",
                    "type": "bool"
                }
            ],
            "stateMutability": "nonpayable",
            "type": "function"
        },
        {
            "inputs": [
                {
                    "internalType": "address",
                    "name": "account",
                    "type": "address"
                }
            ],
            "name": "balanceOf",
            "outputs": [
                {
                    "internalType": "uint256",
                    "name": "",
                    "type": "uint256"
                }
            ],
            "stateMutability": "view",
            "type": "function"
        },
        {
            "inputs": [
                {
                    "internalType": "address",
                    "name": "account",
                    "type": "address"
                },
                {
                    "internalType": "uint256",
                    "name": "amount",
                    "type": "uint256"
                }
            ],
            "name": "burn",
            "outputs": [],
            "stateMutability": "nonpayable",
            "type": "function"
        },
        {
            "inputs": [],
            "name": "decimals",
            "outputs": [
                {
                    "internalType": "uint8",
                    "name": "",
                    "type": "uint8"
                }
            ],
            "stateMutability": "view",
            "type": "function"
        },
        {
            "inputs": [
                {
                    "internalType": "bytes32",
                    "name": "role",
                    "type": "bytes32"
                }
            ],
            "name": "getRoleAdmin",
            "outputs": [
                {
                    "internalType": "bytes32",
                    "name": "",
                    "type": "bytes32"
                }
            ],
            "stateMutability": "view",
            "type": "function"
        },
        {
            "inputs": [
                {
                    "internalType": "bytes32",
                    "name": "role",
                    "type": "bytes32"
                },
                {
                    "internalType": "address",
                    "name": "account",
                    "type": "address"
                }
            ],
            "name": "grantRole",
            "outputs": [],
            "stateMutability": "nonpayable",
            "type": "function"
        },
        {
            "inputs": [
                {
                    "internalType": "bytes32",
                    "name": "role",
                    "type": "bytes32"
                },
                {
                    "internalType": "address",
                    "name": "account",
                    "type": "address"
                }
            ],
            "name": "hasRole",
            "outputs": [
                {
                    "internalType": "bool",
                    "name": "",
                    "type": "bool"
                }
            ],
            "stateMutability": "view",
            "type": "function"
        },
        {
            "inputs": [
                {
                    "internalType": "address",
                    "name": "account",
                    "type": "address"
                },
                {
                    "internalType": "uint256",
                    "name": "amount",
                    "type": "uint256"
                },
                {
                    "internalType": "uint256",
                    "name": "unlockTime",
                    "type": "uint256"
                }
            ],
            "name": "lock",
            "outputs": [],
            "stateMutability": "nonpayable",
            "type": "function"
        },
        {
            "inputs": [
                {
                    "internalType": "address",
                    "name": "account",
                    "type": "address"
                }
            ],
            "name": "lockedBalance",
            "outputs": [
                {
                    "internalType": "uint256",
                    "name": "",
                    "type": "uint256"
                }
            ],
            "stateMutability": "view",
            "type": "function"
        },
        {
            "inputs": [
                {
                    "internalType": "address",
                    "name": "account",
                    "type": "address"
                }
            ],
            "name": "lockedDetail",
            "outputs": [
                {
                    "components": [
                        {
                            "internalType": "uint256",
                            "name": "unlockTime",
                            "type": "uint256"
                        },
                        {
                            "internalType": "uint256",
                            "name": "amount",
                            "type": "uint256"
                        }
                    ],
                    "internalType": "struct WAbel.LockData[]",
                    "name": "",
                    "type": "tuple[]"
                }
            ],
            "stateMutability": "view",
            "type": "function"
        },
        {
            "inputs": [
                {
                    "internalType": "address",
                    "name": "account",
                    "type": "address"
                },
                {
                    "internalType": "uint256",
                    "name": "amount",
                    "type": "uint256"
                }
            ],
            "name": "mint",
            "outputs": [],
            "stateMutability": "nonpayable",
            "type": "function"
        },
        {
            "inputs": [],
            "name": "name",
            "outputs": [
                {
                    "internalType": "string",
                    "name": "",
                    "type": "string"
                }
            ],
            "stateMutability": "view",
            "type": "function"
        },
        {
            "inputs": [
                {
                    "internalType": "bytes32",
                    "name": "role",
                    "type": "bytes32"
                },
                {
                    "internalType": "address",
                    "name": "callerConfirmation",
                    "type": "address"
                }
            ],
            "name": "renounceRole",
            "outputs": [],
            "stateMutability": "nonpayable",
            "type": "function"
        },
        {
            "inputs": [
                {
                    "internalType": "bytes32",
                    "name": "role",
                    "type": "bytes32"
                },
                {
                    "internalType": "address",
                    "name": "account",
                    "type": "address"
                }
            ],
            "name": "revokeRole",
            "outputs": [],
            "stateMutability": "nonpayable",
            "type": "function"
        },
        {
            "inputs": [
                {
                    "internalType": "bytes4",
                    "name": "interfaceId",
                    "type": "bytes4"
                }
            ],
            "name": "supportsInterface",
            "outputs": [
                {
                    "internalType": "bool",
                    "name": "",
                    "type": "bool"
                }
            ],
            "stateMutability": "view",
            "type": "function"
        },
        {
            "inputs": [],
            "name": "symbol",
            "outputs": [
                {
                    "internalType": "string",
                    "name": "",
                    "type": "string"
                }
            ],
            "stateMutability": "view",
            "type": "function"
        },
        {
            "inputs": [],
            "name": "totalSupply",
            "outputs": [
                {
                    "internalType": "uint256",
                    "name": "",
                    "type": "uint256"
                }
            ],
            "stateMutability": "view",
            "type": "function"
        },
        {
            "inputs": [
                {
                    "internalType": "address",
                    "name": "to",
                    "type": "address"
                },
                {
                    "internalType": "uint256",
                    "name": "value",
                    "type": "uint256"
                }
            ],
            "name": "transfer",
            "outputs": [
                {
                    "internalType": "bool",
                    "name": "",
                    "type": "bool"
                }
            ],
            "stateMutability": "nonpayable",
            "type": "function"
        },
        {
            "inputs": [
                {
                    "internalType": "address",
                    "name": "from",
                    "type": "address"
                },
                {
                    "internalType": "address",
                    "name": "to",
                    "type": "address"
                },
                {
                    "internalType": "uint256",
                    "name": "value",
                    "type": "uint256"
                }
            ],
            "name": "transferFrom",
            "outputs": [
                {
                    "internalType": "bool",
                    "name": "",
                    "type": "bool"
                }
            ],
            "stateMutability": "nonpayable",
            "type": "function"
        },
        {
            "inputs": [
                {
                    "internalType": "address",
                    "name": "account",
                    "type": "address"
                }
            ],
            "name": "unlock",
            "outputs": [],
            "stateMutability": "nonpayable",
            "type": "function"
        }
    ],
    "bytecode": "0x60806040523480156200001157600080fd5b506040518060400160405280600c81526020016b15dc985c1c1959081058995b60a21b815250604051806040016040528060058152602001641dd058995b60da1b8152508160039081620000669190620002f3565b506004620000758282620002f3565b5050506200009960008051602062001a59833981519152336200014e60201b60201c565b50620000c460008051602062001a3983398151915260008051602062001a5983398151915262000201565b620000ff7f3c11d16cbaffd01df69ce1c404f6340ee057498f5f00246190ea54220576a84860008051602062001a5983398151915262000201565b6200011a60008051602062001a39833981519152336200014e565b50620001477f3c11d16cbaffd01df69ce1c404f6340ee057498f5f00246190ea54220576a848336200014e565b50620003bf565b60008281526005602090815260408083206001600160a01b038516845290915281205460ff16620001f75760008381526005602090815260408083206001600160a01b03861684529091529020805460ff19166001179055620001ae3390565b6001600160a01b0316826001600160a01b0316847f2f8788117e7eff1d82e926ec794901d17c78024a50270940304540a733656f0d60405160405180910390a4506001620001fb565b5060005b92915050565b600082815260056020526040808220600101805490849055905190918391839186917fbd79b86ffe0ab8e8776151514217cd7cacd52c909f66475c3af44e129f0b00ff9190a4505050565b634e487b7160e01b600052604160045260246000fd5b600181811c908216806200027757607f821691505b6020821081036200029857634e487b7160e01b600052602260045260246000fd5b50919050565b601f821115620002ee576000816000526020600020601f850160051c81016020861015620002c95750805b601f850160051c820191505b81811015620002ea57828155600101620002d5565b5050505b505050565b81516001600160401b038111156200030f576200030f6200024c565b620003278162000320845462000262565b846200029e565b602080601f8311600181146200035f5760008415620003465750858301515b600019600386901b1c1916600185901b178555620002ea565b600085815260208120601f198616915b8281101562000390578886015182559484019460019091019084016200036f565b5085821015620003af5787850151600019600388901b60f8161c191681555b5050505050600190811b01905550565b61166a80620003cf6000396000f3fe608060405234801561001057600080fd5b50600436106101a35760003560e01c8063673e76b4116100ee5780639dc29fac11610097578063d539139311610071578063d5391393146103d0578063d547741f146103f7578063dd62ed3e1461040a578063e2ab691d1461045057600080fd5b80639dc29fac146103a2578063a217fddf146103b5578063a9059cbb146103bd57600080fd5b806391d14854116100c857806391d148541461034157806395d89b41146103875780639ae697bf1461038f57600080fd5b8063673e76b4146102c457806370a08231146102e457806375b238fc1461031a57600080fd5b8063282c51f311610150578063313ce5671161012a578063313ce5671461028f57806336568abe1461029e57806340c10f19146102b157600080fd5b8063282c51f3146102405780632f2ff15d146102675780632f6c493c1461027c57600080fd5b806318160ddd1161018157806318160ddd146101f857806323b872dd1461020a578063248a9ca31461021d57600080fd5b806301ffc9a7146101a857806306fdde03146101d0578063095ea7b3146101e5575b600080fd5b6101bb6101b63660046112a5565b610463565b60405190151581526020015b60405180910390f35b6101d86104fc565b6040516101c791906112ee565b6101bb6101f3366004611384565b61058e565b6002545b6040519081526020016101c7565b6101bb6102183660046113ae565b6105a6565b6101fc61022b3660046113ea565b60009081526005602052604090206001015490565b6101fc7f3c11d16cbaffd01df69ce1c404f6340ee057498f5f00246190ea54220576a84881565b61027a610275366004611403565b6105ca565b005b61027a61028a36600461142f565b6105f5565b604051601281526020016101c7565b61027a6102ac366004611403565b61078a565b61027a6102bf366004611384565b6107e8565b6102d76102d236600461142f565b61081c565b6040516101c7919061144a565b6101fc6102f236600461142f565b73ffffffffffffffffffffffffffffffffffffffff1660009081526020819052604090205490565b6101fc7fa49807205ce4d355092ef5a8a18f56e8913cf4a201fbe287825b095693c2177581565b6101bb61034f366004611403565b600091825260056020908152604080842073ffffffffffffffffffffffffffffffffffffffff93909316845291905290205460ff1690565b6101d86108b2565b6101fc61039d36600461142f565b6108c1565b61027a6103b0366004611384565b610958565b6101fc600081565b6101bb6103cb366004611384565b61098c565b6101fc7f9f2df0fed2c77648de5860a4cc508cd0818c85b8b8a1ab4ceeef8d981c8956a681565b61027a610405366004611403565b61099a565b6101fc610418366004611499565b73ffffffffffffffffffffffffffffffffffffffff918216600090815260016020908152604080832093909416825291909152205490565b61027a61045e3660046114c3565b6109bf565b60007fffffffff0000000000000000000000000000000000000000000000000000000082167f7965db0b0000000000000000000000000000000000000000000000000000000014806104f657507f01ffc9a7000000000000000000000000000000000000000000000000000000007fffffffff000000000000000000000000000000000000000000000000000000008316145b92915050565b60606003805461050b906114f6565b80601f0160208091040260200160405190810160405280929190818152602001828054610537906114f6565b80156105845780601f1061055957610100808354040283529160200191610584565b820191906000526020600020905b81548152906001019060200180831161056757829003601f168201915b5050505050905090565b60003361059c818585610b1c565b5060019392505050565b6000336105b4858285610b29565b6105bf858585610bf7565b506001949350505050565b6000828152600560205260409020600101546105e581610ca2565b6105ef8383610caf565b50505050565b73ffffffffffffffffffffffffffffffffffffffff81166000908152600660205260408120815b815481101561072a57600082828154811061063957610639611549565b906000526020600020906002020190504281600001541161071657600181015461066390856115a7565b83549094508390610676906001906115ba565b8154811061068657610686611549565b90600052602060002090600202018383815481106106a6576106a6611549565b60009182526020909120825460029092020190815560019182015491015582548390806106d5576106d56115cd565b60008281526020812060027fffffffffffffffffffffffffffffffffffffffffffffffffffffffffffffffff90930192830201818155600101559055610724565b81610720816115fc565b9250505b5061061c565b506107358383610daf565b8273ffffffffffffffffffffffffffffffffffffffff167f6381d9813cabeb57471b5a7e05078e64845ccdb563146a6911d536f24ce960f18360405161077d91815260200190565b60405180910390a2505050565b73ffffffffffffffffffffffffffffffffffffffff811633146107d9576040517f6697b23200000000000000000000000000000000000000000000000000000000815260040160405180910390fd5b6107e38282610e0f565b505050565b7f9f2df0fed2c77648de5860a4cc508cd0818c85b8b8a1ab4ceeef8d981c8956a661081281610ca2565b6107e38383610daf565b73ffffffffffffffffffffffffffffffffffffffff81166000908152600660209081526040808320805482518185028101850190935280835260609492939192909184015b828210156108a757838290600052602060002090600202016040518060400160405290816000820154815260200160018201548152505081526020019060010190610861565b505050509050919050565b60606004805461050b906114f6565b600080805b73ffffffffffffffffffffffffffffffffffffffff84166000908152600660205260409020548110156109515773ffffffffffffffffffffffffffffffffffffffff8416600090815260066020526040902080548290811061092a5761092a611549565b9060005260206000209060020201600101548261094791906115a7565b91506001016108c6565b5092915050565b7f3c11d16cbaffd01df69ce1c404f6340ee057498f5f00246190ea54220576a84861098281610ca2565b6107e38383610ece565b60003361059c818585610bf7565b6000828152600560205260409020600101546109b581610ca2565b6105ef8383610e0f565b7f9f2df0fed2c77648de5860a4cc508cd0818c85b8b8a1ab4ceeef8d981c8956a66109e981610ca2565b604080518481526020810184905273ffffffffffffffffffffffffffffffffffffffff8616917f49eaf4942f1237055eb4cfa5f31c9dfe50d5b4ade01e021f7de8be2fbbde557b910160405180910390a273ffffffffffffffffffffffffffffffffffffffff84166000908152600660205260408120905b8154811015610adc5783828281548110610a7d57610a7d611549565b90600052602060002090600202016000015403610ad45784828281548110610aa757610aa7611549565b90600052602060002090600202016001016000828254610ac791906115a7565b909155506105ef92505050565b600101610a61565b5060408051808201909152838152602080820186815283546001818101865560009586529290942092516002909402909201928355905191015550505050565b6107e38383836001610f2a565b73ffffffffffffffffffffffffffffffffffffffff8381166000908152600160209081526040808320938616835292905220547fffffffffffffffffffffffffffffffffffffffffffffffffffffffffffffffff81146105ef5781811015610be8576040517ffb8f41b200000000000000000000000000000000000000000000000000000000815273ffffffffffffffffffffffffffffffffffffffff8416600482015260248101829052604481018390526064015b60405180910390fd5b6105ef84848484036000610f2a565b73ffffffffffffffffffffffffffffffffffffffff8316610c47576040517f96c6fd1e00000000000000000000000000000000000000000000000000000000815260006004820152602401610bdf565b73ffffffffffffffffffffffffffffffffffffffff8216610c97576040517fec442f0500000000000000000000000000000000000000000000000000000000815260006004820152602401610bdf565b6107e3838383611072565b610cac813361121d565b50565b600082815260056020908152604080832073ffffffffffffffffffffffffffffffffffffffff8516845290915281205460ff16610da757600083815260056020908152604080832073ffffffffffffffffffffffffffffffffffffffff86168452909152902080547fffffffffffffffffffffffffffffffffffffffffffffffffffffffffffffff00166001179055610d453390565b73ffffffffffffffffffffffffffffffffffffffff168273ffffffffffffffffffffffffffffffffffffffff16847f2f8788117e7eff1d82e926ec794901d17c78024a50270940304540a733656f0d60405160405180910390a45060016104f6565b5060006104f6565b73ffffffffffffffffffffffffffffffffffffffff8216610dff576040517fec442f0500000000000000000000000000000000000000000000000000000000815260006004820152602401610bdf565b610e0b60008383611072565b5050565b600082815260056020908152604080832073ffffffffffffffffffffffffffffffffffffffff8516845290915281205460ff1615610da757600083815260056020908152604080832073ffffffffffffffffffffffffffffffffffffffff8616808552925280832080547fffffffffffffffffffffffffffffffffffffffffffffffffffffffffffffff0016905551339286917ff6391f5c32d9c69d2a47ea670b442974b53935d1edc7fd64eb21e047a839171b9190a45060016104f6565b73ffffffffffffffffffffffffffffffffffffffff8216610f1e576040517f96c6fd1e00000000000000000000000000000000000000000000000000000000815260006004820152602401610bdf565b610e0b82600083611072565b73ffffffffffffffffffffffffffffffffffffffff8416610f7a576040517fe602df0500000000000000000000000000000000000000000000000000000000815260006004820152602401610bdf565b73ffffffffffffffffffffffffffffffffffffffff8316610fca576040517f94280d6200000000000000000000000000000000000000000000000000000000815260006004820152602401610bdf565b73ffffffffffffffffffffffffffffffffffffffff808516600090815260016020908152604080832093871683529290522082905580156105ef578273ffffffffffffffffffffffffffffffffffffffff168473ffffffffffffffffffffffffffffffffffffffff167f8c5be1e5ebec7d5bd14f71427d1e84f3dd0314c0f7b2291e5b200ac8c7c3b9258460405161106491815260200190565b60405180910390a350505050565b73ffffffffffffffffffffffffffffffffffffffff83166110aa57806002600082825461109f91906115a7565b9091555061115c9050565b73ffffffffffffffffffffffffffffffffffffffff831660009081526020819052604090205481811015611130576040517fe450d38c00000000000000000000000000000000000000000000000000000000815273ffffffffffffffffffffffffffffffffffffffff851660048201526024810182905260448101839052606401610bdf565b73ffffffffffffffffffffffffffffffffffffffff841660009081526020819052604090209082900390555b73ffffffffffffffffffffffffffffffffffffffff8216611185576002805482900390556111b1565b73ffffffffffffffffffffffffffffffffffffffff821660009081526020819052604090208054820190555b8173ffffffffffffffffffffffffffffffffffffffff168373ffffffffffffffffffffffffffffffffffffffff167fddf252ad1be2c89b69c2b068fc378daa952ba7f163c4a11628f55a4df523b3ef8360405161121091815260200190565b60405180910390a3505050565b600082815260056020908152604080832073ffffffffffffffffffffffffffffffffffffffff8516845290915290205460ff16610e0b576040517fe2517d3f00000000000000000000000000000000000000000000000000000000815273ffffffffffffffffffffffffffffffffffffffff8216600482015260248101839052604401610bdf565b6000602082840312156112b757600080fd5b81357fffffffff00000000000000000000000000000000000000000000000000000000811681146112e757600080fd5b9392505050565b60006020808352835180602085015260005b8181101561131c57858101830151858201604001528201611300565b5060006040828601015260407fffffffffffffffffffffffffffffffffffffffffffffffffffffffffffffffe0601f8301168501019250505092915050565b803573ffffffffffffffffffffffffffffffffffffffff8116811461137f57600080fd5b919050565b6000806040838503121561139757600080fd5b6113a08361135b565b946020939093013593505050565b6000806000606084860312156113c357600080fd5b6113cc8461135b565b92506113da6020850161135b565b9150604084013590509250925092565b6000602082840312156113fc57600080fd5b5035919050565b6000806040838503121561141657600080fd5b823591506114266020840161135b565b90509250929050565b60006020828403121561144157600080fd5b6112e78261135b565b602080825282518282018190526000919060409081850190868401855b8281101561148c57815180518552860151868501529284019290850190600101611467565b5091979650505050505050565b600080604083850312156114ac57600080fd5b6114b58361135b565b91506114266020840161135b565b6000806000606084860312156114d857600080fd5b6114e18461135b565b95602085013595506040909401359392505050565b600181811c9082168061150a57607f821691505b602082108103611543577f4e487b7100000000000000000000000000000000000000000000000000000000600052602260045260246000fd5b50919050565b7f4e487b7100000000000000000000000000000000000000000000000000000000600052603260045260246000fd5b7f4e487b7100000000000000000000000000000000000000000000000000000000600052601160045260246000fd5b808201808211156104f6576104f6611578565b818103818111156104f6576104f6611578565b7f4e487b7100000000000000000000000000000000000000000000000000000000600052603160045260246000fd5b60007fffffffffffffffffffffffffffffffffffffffffffffffffffffffffffffffff820361162d5761162d611578565b506001019056fea264697066735822122063d2d00feb6b8d8fb9368ed80780353b2f68b741c6302d53524dae3a9252b11b64736f6c634300081800339f2df0fed2c77648de5860a4cc508cd0818c85b8b8a1ab4ceeef8d981c8956a6a49807205ce4d355092ef5a8a18f56e8913cf4a201fbe287825b095693c21775",
    "linkReferences": {},
    "deployedLinkReferences": {}
}